:020000040800F2
:1000000000000220B9020008C1020008C502000871
:10001000390300083D0300088503000800000000C4
:10002000000000000000000000000000CD030008F8
:10003000D103000800000000D50300080972000881
:10004000E9030008E9030008E90300083971000822
:10005000E9030008E9030008E9030008E9030008D0
:10006000E9030008E9030008E9030008E9030008C0
:10007000E9030008E9030008E9030008E9030008B0
:10008000E9030008E9030008E9030008E9030008A0
:10009000E9030008E9030008E9030008E903000890
:1000A000E9030008E9030008E9030008E903000880
:1000B000E9030008E9030008E9030008E903000870
:1000C000E9030008E9030008E9030008E903000860
:1000D000E9030008E9030008E9030008E903000850
:1000E000E90300086D710008E9030008E90300084E
:1000F000E9030008E9030008E9030008E903000830
:10010000E9030008554A0008E9030008E90300086C
:10011000E9030008E903000819400008E9030008A2
:10012000E9030008E9030008E9030008354A00086C
:10013000E9030008E9030008E9030008E9030008EF
:10014000E9030008E9030008E9030008E9030008DF
:10015000E9030008454A0008E9030008E90300082C
:10016000E9030008E9030008E9030008E9030008BF
:10017000E9030008E9030008E903000800000000A3
:10018000E9030008E903000800B583B004F022F990
:10019000384B394A1360394A136039490CE00A6810
:1001A0004B6801F10C04886803E01168196004339E
:1001B00004329842F9D82146324B9942EFD32E4B64
:1001C0001A68314B9A4204D12C4B1A682F4B9A4231
:1001D00000D0FEE7274B2E4A13602E4A13602E4BA9
:1001E0000AE0194651F8082B5B6802E00020106015
:1001F00004329A42FAD30B46284A9342F1D3244B55
:100200001B6813B9234B1B6803B1FEE707F050F8D6
:10021000694601A804F06EF8214C224B1C1BA41067
:10022000002504E01E4B53F8253098470135AC42B9
:10023000F8DC1D4C1D4B1C1BA410002504E01A4BC0
:1002400053F8253098470135AC42F8DC0099019805
:1002500007F0F0F80546164C164B1C1BA41004E0E2
:10026000013C134B53F824309847002CF8DC284607
:1002700004F012F8BABADECA00000020F80100202B
:10028000EC030008040400087856341232547698BF
:1002900000020020800A0020040400081404000862
:1002A00014040008140400081404000814040008CE
:1002B000140400081404000808B5FFF765FF00BF28
:1002C00000BEFEE71EF0040F0CBFEFF30880EFF353
:1002D00009807146414A10472DE9F04182B0044639
:1002E0008846134B5E6B9F6B9D6A1B6B13F0020F6E
:1002F0000DD00F4BDB6A002B09DA4BF6AB6104F033
:10030000EDF820B14FF00042094BDA620CE00948E9
:1003100004F002F8CDF800803B46324629462046DC
:1003200004F064F800BEFEE702B0BDE8F08100BF53
:1003300000ED00E0E88E000800BEFEE71EF0040FAE
:100340000CBFEFF30880EFF309807146244A104791
:100350002DE9F04182B004468846084B5E6B9F6BE6
:100360009D6A074803F0D8FFCDF800803B4632462F
:100370002946204604F03AF800BEFEE700ED00E012
:10038000F88E00081EF0040F0CBFEFF30880EFF3A7
:1003900009807146134A10472DE9F04182B00446A6
:1003A0008846084B5E6B9F6B9D6A074803F0B4FF5D
:1003B000CDF800803B4632462946204604F016F828
:1003C00000BEFEE700ED00E0048F000800BEFEE77F
:1003D00000BEFEE700BEFEE770470000D90200083D
:0C03E000510300089903000800BEFEE76E
:1003EC00B891000800000020FC010020B891000822
:1003FC00000000100000001000020020840A002001
:08040C000000001000000010C8
:1004200008B50B4B1A6842F400721A601A6842F45D
:1004300080621A601A6842F480721A60032000F029
:1004400009F80F2003F0A0FD05F03AFF002008BDD9
:10045000003C024010B50446C31E042B03D9A4215E
:10046000094803F04FFF094AD36823F4E0631B04F3
:100470001B0C240204F4E064234343F0BF6343F401
:100480000033D36010BD00BF1C8B000800ED00E0FE
:1004900070B504460E4615460F2A03D9BC211A48EA
:1004A00003F030FF0F2E03D9BD21174803F02AFFB8
:1004B000164BDA68C2F30222C2F10701042928BFF1
:1004C0000421131D062B01D9033A00E00022012369
:1004D00003FA01F101393140914003FA02F2013A85
:1004E0002A400A43002C06DA04F00F041201D2B2AB
:1004F000074B1A5570BD1201D2B204F1604404F5E5
:10050000614484F8002370BD1C8B000800ED00E0FE
:1005100014ED00E010B5041E03DAD021064803F004
:10052000F1FE620904F01F04012303FA04F4034BF3
:1005300043F8224010BD00BF1C8B000800E100E022
:100540000138B0F1807F0AD2064B5860F021064A8C
:1005500082F823100020986007221A60704701205B
:10056000704700BF10E000E000ED00E010B5044669
:10057000042805D020B140F2B311084803F0C2FEB0
:10058000042C05D1064A136843F00403136010BD20
:10059000034A136823F00403136010BD1C8B00088A
:1005A00010E000E00268D3B2103B0B49A1FB03133B
:1005B0001B090A49C95C4165032B06D922F47F72E5
:1005C00022F003020432026504E022F47F7222F07A
:1005D00003020265006D7047ABAAAAAA508B0008FF
:1005E000002800F0048110B504460368814A934254
:1005F00031D0183293422ED0183293422BD0183279
:10060000934228D01832934225D01832934222D0F8
:10061000183293421FD0183293421CD002F5567202
:10062000934218D01832934215D01832934212D008
:10063000183293420FD0183293420CD018329342A2
:1006400009D01832934206D01832934203D0C52104
:10065000694803F057FE6368C3B1B3F1007F15D05A
:10066000B3F1806F12D0B3F1C06F0FD0B3F1006F50
:100670000CD0B3F1206F09D0B3F1406F06D0B3F1C5
:10068000606F03D0C6215C4803F03CFEA3683BB119
:10069000402B05D0802B03D0C721574803F032FEF2
:1006A000E368B3F5007F04D01BB1C821524803F0C2
:1006B00029FE2369B3F5806F04D01BB1C9214E48D0
:1006C00003F020FE63694BB1B3F5006F06D0B3F5BC
:1006D000805F03D0CA21484803F014FEA3694BB1E0
:1006E000B3F5005F06D0B3F5804F03D0CB2142486D
:1006F00003F008FEE36943B1B3F5807F05D0202BFA
:1007000003D0CC213C4803F0FDFD236A63B1B3F56F
:10071000803F09D0B3F5003F06D0B3F5403F03D08A
:10072000CD21354803F0EEFD636A2BB1042B03D0D5
:10073000CE21314803F0E6FD636A23B3A36A032B9D
:1007400003D9D3212C4803F0DDFDE36A63B1B3F58F
:10075000000F09D0B3F1807F06D0B3F1C07F03D082
:10076000D421254803F0CEFD236B63B1B3F5001F00
:1007700009D0B3F5800F06D0B3F5C00F03D0D52153
:100780001D4803F0BFFD022384F83530206803685C
:100790001A4919406268A3681A43E3681A43236937
:1007A0001A4363691A43A3691A43E3691343226A2C
:1007B0001A4341EA0203626A042A03D1E16A226B06
:1007C0000A43134303602268536923F00703616AF5
:1007D0000B43042901D1A16A0B4353612046FFF763
:1007E000E1FE0020E064012384F8353010BD0120D3
:1007F000704700BF10600240588B00083F8010F027
:1008000030B338B5044690F83530DBB2022B21D036
:100810000268136823F001031360036800251D605C
:1008200003685D6003689D600368DD6003681D61A7
:10083000036821225A61FFF7B5FE626D3F239340A2
:100840008360E56484F8355084F83450284638BD18
:1008500001207047012038BD38B50446056D2A686F
:10086000416D08238B401A4219D003681A6812F0B0
:10087000040F14D01A6822F004021A60426D082393
:100880009340AB60C36C43F00103C364042380F85E
:100890003530002380F83430836C03B198472A68E0
:1008A000616D584B8B401A421AD023685A6912F076
:1008B000800F15D05A6922F080025A61626D514B47
:1008C0009340AB60E36C43F00203E364042384F8D9
:1008D0003530002384F83430A36C0BB120469847A0
:1008E0002A68616D484B8B401A421AD023681A68F7
:1008F00012F0020F15D01A6822F002021A60626D1F
:10090000414B9340AB60E36C43F00403E364042386
:1009100084F83530002384F83430A36C0BB12046C2
:1009200098472A68616D10238B401A422DD02268A7
:10093000116811F0080F28D0116811F4802F11D020
:10094000AB6023681A6812F4002F03D1312384F8B6
:10095000353016E01B6813F4002F12D0412384F8C1
:1009600035300EE0136813F4807F03D1136823F051
:1009700008031360626D10239340AB60312384F849
:100980003530236C0BB1204698472A68616D2023CF
:100990008B401A4234D02268116811F0100F2FD00A
:1009A000116811F4802F13D0AB6023681A6812F419
:1009B000002F04D1636C1BB32046984738BD1B68D9
:1009C00013F4002F1CD0E36BD3B12046984738BDF9
:1009D000136813F4807F03D1136823F010031360AE
:1009E000626D20239340AB60E36CE364112384F8D1
:1009F0003530002384F83430E36B0BB12046984740
:100A000038BD00BF01008000040080002DE9F047E0
:100A100082B080460F46A44B984223D003F58063F2
:100A200098421FD003F5806398421BD003F5806382
:100A3000984217D003F58063984213D003F5806382
:100A400098420FD003F5806398420BD003F5806382
:100A5000984207D003F58063984203D0C52193489C
:100A600003F050FC3B881BB9C621904803F04AFCB8
:100A70007B68012B22D9112B20D0022B1ED0122BE8
:100A80001CD08B4A934219D002F58012934215D0A4
:100A900002F58012934211D0A2F5F81293420DD0C4
:100AA00002F58012934209D002F58012934205D0DC
:100AB000032B03D0C7217D4803F024FCBB68022B25
:100AC00003D9C821794803F01DFC00252CE101243D
:100AD000AC403E682640B44240F025817B68022B42
:100AE00001D0122B4AD13B69C3B3092B36D0ABB32B
:100AF000A3B39BB393B3012B30D02FD0022B2DD0B7
:100B00002CD02BD0032B29D0042B27D026D025D0B6
:100B1000052B23D022D0092B20D0062B1ED0092B49
:100B20001CD0072B1AD019D018D0082B16D015D0EE
:100B300014D0092B12D011D00A2B0FD00ED00B2BB2
:100B40000CD00C2B0AD009D00D2B07D00C2B05D0C4
:100B50000F2B03D0D921554803F0D4FBEA08083203
:100B600058F8220005F0070399000F238B4020EA74
:100B700003003B698B40034348F82230D8F800302B
:100B80004FEA450A4FF0030909FA0AF96FEA090921
:100B900003EA09027B6803F0030303FA0AF3134331
:100BA000C8F800307B685A1E012A03D9112B01D0E6
:100BB000122B1BD1FB68032B03D9EC213B4803F01C
:100BC000A1FBD8F8083009EA0302FB6803FA0AF32C
:100BD0001343C8F80830D8F8043023EA04047B68CB
:100BE000C3F30013AB401C43C8F80440D8F80C30E2
:100BF00009EA0309BB6803FA0AF349EA0303C8F8E0
:100C00000C307B6813F0805F00F08D80002301932F
:100C1000284B5A6C42F480425A645B6C03F4804364
:100C20000193019BA9088A1C234B53F8220005F06D
:100C300003039B000F229A4020EA02001A4A9045C3
:100C400021D002F5806290451FD002F58062904568
:100C50001DD002F5806290451BD002F58062904560
:100C600019D002F58062904517D002F58062904558
:100C700015D002F58062904513D002F58062904550
:100C80001CD108221BE0002219E0012217E00222F9
:100C900015E0032213E0042211E005220FE00622F2
:100CA0000DE007220BE000BF00000240888B000827
:100CB000000011100038024000380140092202FAF9
:100CC00003F3034302311B4A42F821301A4B1A68DE
:100CD000F34302EA0301786810F4803F01D046EA4A
:100CE0000201154A1160526803EA0201786810F4A3
:100CF000003F01D046EA02010F4A5160926803EAC0
:100D00000201786810F4801F01D046EA02010A4A05
:100D10009160D2681340796811F4001F01D046EA4F
:100D20000203054AD36001350F2D7FF6D0AE02B025
:100D3000BDE8F08700380140003C014070B5064630
:100D400015460C4621B940F2B111084803F0DAFA11
:100D5000012D04D94FF4D971044803F0D3FA0DB131
:100D6000B46170BD2404B46170BD00BF888B0008FD
:100D700003685A6912F4806F0DD06FF480625A6173
:100D80000423036400230363202280F83D2080F8BD
:100D90003C30012070470020704700BF2DE9F04132
:100DA00006460C4690461D4605F0D0FA0746B8F1B7
:100DB000000F13D03FE0B5F1FF3F0FD025B105F094
:100DC000C5FAC01B854209D200233363202286F86E
:100DD0003D2086F83C300320BDE8F081C4F3074392
:100DE000012B08D133685B6924EA03039BB200330B
:100DF00018BF012307E033689B6924EA03039BB211
:100E0000003318BF0123002BD5D10020BDE8F081AD
:100E1000B5F1FF3F0FD025B105F098FAC01B854210
:100E200009D200233363202286F83D2086F83C3027
:100E30000320BDE8F081C4F30743012B08D13368D8
:100E40005B6924EA03039BB2B3FA83F35B0907E00F
:100E500033689B6924EA03039BB2B3FA83F35B090B
:100E6000002BD5D10020BDE8F08100BFF8B50446C5
:100E70000D46164605F06AFA074629E023685A69C6
:100E800012F4806F12D01A6842F400721A6023685C
:100E90006FF480625A6104232364002323632022B9
:100EA00084F83D2084F83C300120F8BDB6F1FF3FC6
:100EB0000ED026B105F04AFAC01B864208D20023A4
:100EC0002363202284F83D2084F83C300320F8BDC1
:100ED000C5F30743012B08D123685B6925EA0303A7
:100EE0009BB2003318BF012307E023689B6925EA02
:100EF00003039BB2003318BF0123002BBED1002097
:100F0000F8BD00BF70B504460E461546C36A042BF3
:100F100006D0C36A012B03D0C36A13F5803F05D105
:100F20002268136843F48073136007E0036B122B8D
:100F300004D10268136843F4807313602B460022C7
:100F40004FF001112046FFF729FF48BB2369B3F595
:100F5000804F04D1236806F0FE061E6114E022686B
:100F6000F31103F0060343F0F00313612A4610491E
:100F70002046FFF77BFF20B1236C042B12D1012305
:100F800013E02368F6B21E612A460A492046FFF79D
:100F90006DFF034648B1236C042B05D1012304E007
:100FA000032302E0032300E00323184670BD00BFC3
:100FB0000800010002000100F0B583B004460E46AF
:100FC0001546C36A042B06D0C36A012B03D0C36A3B
:100FD00013F5803F0AD12268136843F480631360DD
:100FE0002268136843F4807313600CE0036B112BC9
:100FF00009D10268136843F48063136002681368C0
:1010000043F4807313602B4600224FF001112046F9
:10101000FFF7C4FE00284CD12369B3F5804F05D1FA
:10102000236846F00106F6B21E6136E02368F71128
:1010300007F0060747F0F0021A612A4623492046C6
:10104000FFF714FF20B1236C042B34D1012339E0C6
:101050002368F6B21E612A461D492046FFF706FFA7
:1010600020B1236C042B28D101232BE00022019214
:10107000236859690191996901910199196841F4AD
:10108000807119602B464FF001112046FFF786FE54
:10109000A8B9236847F0F1071F612A460C4920468A
:1010A000FFF7E4FE034668B1236C042B09D101234A
:1010B00008E0032306E0032304E0032302E0032304
:1010C00000E00323184603B0F0BD00BF0800010094
:1010D0000200010070B504460D4605F037F90646DA
:1010E00019E02046FFF744FEE0B9B5F1FF3F12D00A
:1010F00025B105F02BF9801B85420CD2236C43F0FF
:101100002003236400232363202284F83D2084F8F5
:101110003C30032070BD23685B6913F0800FE0D082
:10112000002070BD012070BD70B504460D4605F06D
:101130000DF9064619E02046FFF71AFEE0B9B5F1B1
:10114000FF3F12D025B105F001F9801B85420CD27A
:10115000236C43F02003236400232363202284F8BC
:101160003D2084F83C30032070BD23685B6913F098
:10117000040FE0D0002070BD012070BD70B50546A1
:101180000C4605F0E3F8064622E05A6912F0100F0B
:101190000CD06FF010025A6100232B642B632022C5
:1011A00085F83D2085F83C30012070BD24B105F064
:1011B000CDF8801B84420BD22B6C43F020032B64B0
:1011C000202385F83D30002385F83C30032070BD96
:1011D0002B685A6912F0400FD7D0002070BD00BFB5
:1011E000704700BF002800F0E38038B5044603686C
:1011F000704A93420CD002F58062934208D002F507
:101200008062934204D04FF4B1716B4803F07AF8D6
:101210006368013B694A934204D940F2631166480E
:1012200003F070F8A3683BB1B3F5804F04D04FF4DE
:10123000B271614803F066F8E36823F47F7323F02A
:10124000030323B140F265115B4803F05BF82369A7
:10125000B3F5804F07D0B3F5404F04D04FF4B371CE
:10126000554803F04FF86369012B04D940F2671128
:10127000514803F047F8A36933F0FE0304D04FF45C
:10128000B4714D4803F03EF8E36933B1402B04D00C
:1012900040F26911484803F035F8236A33B1802BD6
:1012A00004D04FF4B571444803F02CF894F83D3065
:1012B00013F0FF0F05D1002384F83C302046FFF7E0
:1012C0008FFF242384F83D302268136823F0010344
:1012D000136000F09FFE3A4BA3FB00239B0C226897
:1012E000536021686568374A954201D8013308E0A8
:1012F0004FF4967202FB03F3334AA2FB03239B09CC
:1013000001330B62216863682E4A934208D85B0060
:10131000B0FBF3F0C0F30B03032B2BD8042029E020
:10132000A5684DB903EB4302B0FBF2F2C2F30B0226
:10133000B2FA82F252090AE003EB830202EB820264
:10134000B0FBF2F2C2F30B02B2FA82F2520982B996
:1013500035B903EB4303B0FBF3F040F4004009E080
:1013600003EB830303EB8303B0FBF3F040F4404053
:1013700000E00120C8612268E169236A0B43136021
:1013800022682169E3680B43936022686169A3695D
:101390000B43D3602268136843F0010313600020FD
:1013A0002064202384F83D30206384F83E0038BD5B
:1013B0000120704700540040B88B00087F1A0600D7
:1013C00083DE1B43A0860100D34D6210F0B583B0CD
:1013D0001E4690F83D30DBB2202B40F0848004465E
:1013E0000D46174642F2107301224549FFF7D6FC1D
:1013F00000287AD194F83C30012B78D0012384F86E
:101400003C302268136823F400631360212384F8BE
:101410003D30102384F83E3000232364A3F580334D
:10142000E362089A29462046FFF76CFD054660B145
:10143000236C042B04D1002384F83C3001255BE0AD
:10144000002384F83C30032556E0002301932368F1
:101450005A6901929B690193019B34E008992046E7
:10146000FFF738FE48B1236C042B42D12268136881
:1014700043F40073136001253EE02368781C3A783A
:101480001A61731E9BB22268516911F0040F06D0D5
:1014900043B17B781361023EB6B2023704E01E46C8
:1014A000074601E01E46074608992046FFF73CFE26
:1014B00048B1236C042B1ED12268136843F40073D7
:1014C0001360012518E0002EC8D12268136843F488
:1014D00000731360202384F83D30002384F83E30ED
:1014E00084F83C3008E0022506E0022504E00225ED
:1014F00002E0032500E00325284603B0F0BD00BF4D
:1015000002001000F0B585B01E4690F83D30DBB209
:10151000202B40F0FC8004460D46174642F2107323
:1015200001228449FFF73AFC002840F0F28094F849
:101530003C30012B00F0EF80012384F83C3022681E
:10154000136823F400631360222384F83D301023D2
:1015500084F83E3000232364A3F58033E3620A9AC3
:1015600029462046FFF728FD054660B1236C042B71
:1015700004D1002384F83C300125D7E0002384F80F
:101580003C300325D2E066B90023009323685A69F2
:1015900000929A690092009A1A6842F400721A60E6
:1015A000AAE0012E11D12268136823F4806313602E
:1015B0000023019323685A6901929A690192019A62
:1015C0001A6842F400721A6096E0022E12D1226864
:1015D000136823F4806313602268136843F4006384
:1015E00013600023029323685A6902929B69029355
:1015F000029B81E02268136843F480631360002338
:10160000039323685A6903929B690393039B73E0D6
:10161000032E54D8012E10D10A992046FFF7AEFDB3
:1016200020B1236C202B78D103257FE023681B6930
:101630003B70013EB6B201375EE0022E18D10A9B24
:1016400000223D492046FFF7A9FB002867D1226808
:10165000136843F40073136023681A693B4603F868
:10166000022B226812697A70023EB6B21F4643E02E
:101670000A9B002230492046FFF790FB002850D1FA
:101680002268136823F48063136023681B693B702E
:101690000A9B002228492046FFF780FB002842D100
:1016A0002268136843F40073136023681B697B701E
:1016B00023681B69BB70033EB6B203371CE00A996E
:1016C0002046FFF75BFD20B1236C202B2DD1032595
:1016D0002CE0781C23681B693B70731E9BB2226848
:1016E000516911F0040F05D013697B70023EB6B248
:1016F000023701E01E460746002E89D1202384F8D8
:101700003D30002384F83E3084F83C300EE0022562
:101710000CE002250AE0022508E0012506E0032589
:1017200004E0032502E0032500E00125284605B07A
:10173000F0BD00BF02001000040001002DE9F047D9
:1017400082B090F83D50EDB2202D40F09D801E46B5
:1017500090460F46044642F2107301225249FFF7A9
:101760001DFB002840F0928094F83C30012B00F0E3
:101770008F804FF0010A84F83CA02268136823F49C
:1017800000631360242384F83D3000232364A3F511
:101790008033E36200E09A462268136843F4807362
:1017A0001360334600224FF001112046FFF7F6FA8E
:1017B00000286FD1236807F0FE021A6104F0C6FD0D
:1017C000814623685869C0F340005D69C5F38025F0
:1017D00094F83D30DBB213E02EB104F0B7FDC9EB55
:1017E0000000864202D2A02384F83D302368586965
:1017F000C0F340005D69C5F3802594F83D30DBB24D
:1018000010B90DB9A02BE7D1202384F83D3023680F
:101810005A6912F0020F1BD01A6842F400721A6063
:101820000023019323685A6901929B690193019BEC
:1018300042F2107301221C492046FFF7AFFA03461B
:1018400050BB202284F83D20002284F83C2026E072
:101850001A6842F400721A6023686FF480625A6159
:1018600042F21073012210492046FFF797FAA8B9F7
:101870000AF10103C2458ED3202384F83D300023B2
:1018800084F83C3001230AE0022308E0022306E04A
:10189000022304E0032302E0032300E003231846AD
:1018A00002B0BDE8F08700BF02001000006C704776
:1018B0004FF4807393FAA3F3B3FA83F303F18453E1
:1018C00003F560339B0001221A60704730B583B086
:1018D000044603680F2B03D9F6219C4802F012FD41
:1018E000236813F0010F45D06368012B05D9052B40
:1018F00003D0FB21954802F005FD954B9B6803F052
:101900000C03042B0AD0924B9B6803F00C03082BAA
:101910000CD18F4B5B6813F4800F07D08C4B1B6886
:1019200013F4003F26D0636823BBCCE12279894BB6
:101930001A7063687BB104F009FD054605E004F008
:1019400005FD401B642800F2C081814B1B6813F425
:10195000003FF4D00EE004F0F9FC054605E004F089
:10196000F5FC401B642800F2B281794B1B6813F42C
:10197000003FF4D1236813F0020F6AD0E368012B13
:1019800004D940F22D11714802F0BCFC23691F2BD1
:1019900004D94FF497716D4802F0B4FC6C4B9B680E
:1019A00013F00C0F0AD06A4B9B6803F00C03082B52
:1019B0001BD1674B5B6813F4800F16D1644B1B6817
:1019C00013F0020F03D0E368012B40F082816048DE
:1019D000036823F0F8012369F82292FAA2F2B2FA1E
:1019E00082F293400B43036033E0E368FBB10122D2
:1019F000594B1A6004F0AAFC054605E004F0A6FC69
:101A0000401B022800F26781514B1B6813F0020F44
:101A1000F4D04F48036823F0F8012369F82292FAC2
:101A2000A2F2B2FA82F293400B43036011E000226B
:101A3000494B1A6004F08AFC054605E004F086FC78
:101A4000401B022800F24981414B1B6813F0020F32
:101A5000F4D1236813F0080F2ED06369012B04D949
:101A60004FF4B771394802F04DFC636993B101221C
:101A70003A4B1A6004F06AFC054605E004F066FC87
:101A8000401B022800F22B81314B5B6F13F0020FD9
:101A9000F4D011E00022314B1A6004F057FC0546E7
:101AA00005E004F053FC401B022800F21A81284B89
:101AB0005B6F13F0020FF4D1236813F0040F60D0B2
:101AC000A368012B06D9052B04D04FF4CC711F4815
:101AD00002F018FC002301931D4B1A6C42F0805257
:101AE0001A641B6C03F080530193019B1C4A13681A
:101AF00043F48073136004F029FC054605E004F00C
:101B000025FC401B022800F2EE80154B1B6813F4E5
:101B1000807FF4D0227A134B1A70A3688BB104F043
:101B200015FC054607E004F011FC401B41F2883328
:101B3000984200F2DA80064B1B6F13F0020FF2D0CE
:101B40001FE004F003FC054616E000BFF88B000818
:101B5000003802400238024000004742800E4742EF
:101B6000007000407038024004F0F0FB401B41F26E
:101B70008833984200F2BB80634B1B6F13F0020F57
:101B8000F2D1A369022B04D940F2CD115F4802F0D3
:101B9000B9FBA369002B00F0AC805B4A926802F0AD
:101BA0000C02082A00F0A780022B79D1E3693BB12F
:101BB000B3F5800F04D04FF4EB71544802F0A2FB50
:101BC000236A3F2B04D940F2D711504802F09AFB08
:101BD000636A323BB3F5BF7F04D94FF4EC714B48D5
:101BE00002F090FBA36A022B0AD0042B08D0062B2C
:101BF00006D0082B04D040F2D911444802F082FBF1
:101C0000E36A043B0B2B04D94FF4ED713F4802F01B
:101C100079FB00223E4B1A6004F098FB054604E075
:101C200004F094FB401B022867D8374B1B6813F065
:101C3000007FF5D1E169236A1943636A47F6C072F0
:101C400092FAA2F2B2FA82F293401943A36A5B08B5
:101C50005A1E4FF4403393FAA3F3B3FA83F302FA14
:101C600003F30B43E26A4FF0706191FAA1F1B1FA0C
:101C700081F18A401343244A53600122244B1A60A5
:101C800004F064FB044604E004F060FB001B02283F
:101C900035D81D4B1B6813F0007FF5D0002031E0D4
:101CA00000221B4B1A6004F051FB044604E004F0D0
:101CB0004DFB001B022824D8134B1B6813F0007F38
:101CC000F5D100201EE001201CE003201AE00320D3
:101CD00018E0012016E0032014E0032012E00320A6
:101CE00010E003200EE003200CE003200AE00320B4
:101CF00008E0002006E0012004E0032002E00320C9
:101D000000E0032003B030BD00380240F88B00082B
:101D10006000474270B504460D460368013B0E2B38
:101D200004D94FF40E71834802F0ECFA072D04D960
:101D300040F239217F4802F0E5FA7F4B1B6803F03F
:101D40000F039D4208D9EBB27B4A1370136803F06E
:101D50000F039D4240F0DB80236813F0020F1DD07B
:101D6000A368A3B1802B12D0902B10D0A02B0ED043
:101D7000B02B0CD0C02B0AD0D02B08D0E02B06D033
:101D8000F02B04D04FF414716A4802F0BBFA6B498F
:101D90008B6823F0F002A36813438B60236813F071
:101DA000010F64D06368032B04D940F257216148C6
:101DB00002F0A8FA6268012A05D1604B1B6813F48F
:101DC000003F0FD1A5E0931E012B05D85B4B1B688C
:101DD00013F0007F06D19EE0584B1B6813F0020FF2
:101DE00000F09B8055498B6823F0030313438B60FD
:101DF00004F0ACFA06466368012B0FD107E004F04B
:101E0000A5FA801B41F28833984200F288804B4B40
:101E10009B6803F00C03042BF1D128E0022B0ED1B8
:101E200006E004F093FA801B41F28833984278D898
:101E3000424B9B6803F00C03082BF2D117E0032BF5
:101E400010D13E4B9B6804F081FA801B41F288332D
:101E50009842F6D967E004F079FA801B41F28833A2
:101E6000984262D8354B9B6813F00C0FF3D1324B7C
:101E70001B6803F00F039D4207D2EAB22E4B1A7083
:101E80001B6803F00F039D4251D1236813F0040F28
:101E900019D0E36883B1B3F5805F0DD0B3F5A05FCF
:101EA0000AD0B3F5C05F07D0B3F5E05F04D040F2CD
:101EB000B521204802F026FA20498B6823F4E0522D
:101EC000E36813438B60236813F0080F1AD023696B
:101ED00083B1B3F5805F0DD0B3F5A05F0AD0B3F541
:101EE000C05F07D0B3F5E05F04D04FF42F71114805
:101EF00002F008FA114A936823F46043216943EA27
:101F0000C10393600F2002F03FF8002070BD012054
:101F100070BD012070BD012070BD012070BD032087
:101F200070BD032070BD032070BD032070BD012073
:101F300070BD00BFF88B0008003C02400038024032
:101F4000244B9B6803F00C03042B3FD0082B01D0DB
:101F50002148704710B41F4B586800F03F005B6881
:101F600013F4800F10D01D4BB3FBF0F0194B5A68DF
:101F700047F6C0710A4091FAA1F3B3FA83F322FA4B
:101F800003F303FB00F310E0134BB3FBF0F0114B32
:101F90005A6847F6C07402EA040194FAA4F2B2FA4D
:101FA00082F221FA02F202FB00F30A4A506800F4BE
:101FB00040324FF4403090FAA0F0B0FA80F022FAAC
:101FC00000F001304000B3FBF0F001E0034870473F
:101FD00010BC7047003802400024F40000127A0060
:101FE00008B5FFF7ADFF084B9B6803F0F002F02344
:101FF00093FAA3F3B3FA83F322FA03F3034AD35C0D
:10200000D840034B186008BD00380240E88B000838
:102010000C00002008B5FFF7E3FF084B9B6803F4B2
:10202000E0524FF4E05393FAA3F3B3FA83F322FAA6
:1020300003F3034AD35CD84008BD00BF0038024018
:10204000E88B00080F2303600B4B9A6802F0030231
:1020500042609A6802F0F00282609A6802F4E052EC
:10206000C2609B68DB0803F4E0530361034B1B6809
:1020700003F00F030B60704700380240003C024041
:1020800030B583B005460368013B062B04D940F206
:102090001661624802F036F92B6813F0010F4AD03E
:1020A000AB68023B052B04D940F21C615B4802F08F
:1020B00029F96B68323BB3F5BF7F04D940F21D614B
:1020C000564802F01FF90022554B1A6004F03EF901
:1020D000044605E004F03AF9001B022800F2918062
:1020E000504B1B6813F0006FF4D16A6847F6C07359
:1020F00093FAA3F3B3FA83F302FA03F1AB684FF058
:10210000E04292FAA2F2B2FA82F293400B43454ABD
:10211000C2F884300122424B1A6004F017F90446D9
:1021200004E004F013F9001B02286CD83D4B1B6837
:1021300013F0006FF5D02B6813F0020F65D0002369
:102140000193384B1A6C42F080521A641B6C03F0F6
:1021500080530193019B344A136843F480731360E6
:1021600004F0F4F8044604E004F0F0F8001B022840
:102170004DD82D4B1B6813F4807FF5D0294B1A6F77
:10218000EB68534013F4407F43D0264A136F23F487
:102190004070264901240C6000240C60106713F085
:1021A000020F0FD004F0D2F8044606E004F0CEF897
:1021B000001B41F2883398422DD81A4B1B6F13F045
:1021C000020FF3D0EB6803F44072B2F5407F0AD1FE
:1021D00014498A6822F4F81223F0704323F4407300
:1021E00013438B6004E00F4A936823F4F813936061
:1021F0000C4A116FEB68C3F30B030B43136700200A
:102200000AE0032008E0032006E0002004E00320A9
:1022100002E0002000E0032003B030BD288C00085D
:10222000680047420038024000700040400E4742BC
:10223000704700BF38B504460268D36823F0A00396
:10224000D36004F083F8054605E004F07FF8401BF6
:10225000B0F57A7F06D82368DB6813F0200FF4D03E
:10226000002038BD032038BD38B50368DA6812F0A5
:10227000400F14D104464FF0FF32DA6004F066F8E4
:10228000054605E004F062F8401BB0F57A7F08D8F7
:102290002368DB6813F0400FF4D0002038BD002025
:1022A00038BD032038BD00BF002800F0858038B558
:1022B00004464368402B04D01BB1D421414802F0AE
:1022C00021F8A3687F2B03D9D5213E4802F01AF8E4
:1022D000E368B3F5004F03D3D6213A4802F012F871
:1022E000236963B1B3F5001F09D0B3F5800F06D0A1
:1022F000B3F5C00F03D0D721324802F003F8636969
:1023000033B1B3F5801F03D0D8212E4801F0FAFF76
:10231000A36933B1B3F5802F03D0D921294801F047
:10232000F1FF637F13F0FF0F04D1002323772046D2
:10233000FFF77EFF022363772368CA225A6223686D
:1023400053225A622046FFF78FFF024630B12368BE
:10235000FF225A6204236377012230E021688B68F0
:1023600023F4E00323F040038B60206885686368F2
:102370002169194363690B432B4383602368E16838
:10238000196121680B69A06843EA00430B61216869
:10239000CB6823F08003CB6021680B6C23F480238F
:1023A0000B642168086CA36903430B642368FF2155
:1023B00059620123637702E00122104670471046FC
:1023C00038BD00BF5C8C0008002302E001330A38EE
:1023D000C0B20928FAD81B01DBB21843704700BF0E
:1023E000030903EB83035A0000F00F001044C0B24E
:1023F000704700BFF8B504460D461646012A04D9B9
:102400004FF4DA71794801F07DFFEB68B3F5003FD6
:1024100008D0B3F5803F05D023B140F2B511734821
:1024200001F070FF2B693BB1B3F5802F04D04FF45E
:10243000DB716E4801F066FF237F012B00F0D38033
:102440000123237702236377002E43D123689B68FF
:1024500013F0400F13D02B78013BDBB20B2B04D9C8
:1024600040F2C111614801F04DFFEB788BB1402B78
:102470000FD04FF4E1715D4801F044FF09E0002303
:10248000EB702B78172B04D940F2C711574801F095
:1024900039FF6B783B2B04D940F2C911534801F046
:1024A00031FFAB783B2B04D94FF4E5714F4801F075
:1024B00029FF2878FFF788FF06046878FFF784FF74
:1024C00046EA0026A878FFF77FFF3043EE7840EA1F
:1024D000064643E023689B6813F0400F14D0287829
:1024E000FFF77EFF01380B2804D94FF4EB713F480A
:1024F00001F008FFEB789BB1402B11D040F2D711CF
:102500003A4801F0FFFE0BE00023EB702878FFF75C
:1025100067FF172804D94FF4EE71344801F0F2FE3A
:102520006878FFF75DFF3B2804D94FF4EF712F481F
:1025300001F0E8FEA878FFF753FF3B2804D940F2EA
:10254000DF112A4801F0DEFE2E786B781B0243EA89
:102550000643AE783343E87843EA00462368CA224C
:102560005A62236853225A622046FFF77DFE0746CF
:1025700040B12368FF225A62042363770023237744
:10258000012731E0236806F07F3020F0FE4018601C
:102590002268936823F48023936021688868EB683D
:1025A0002A69134303438B602268D36823F08003B6
:1025B000D36023689B6813F0200F0CD12046FFF7EF
:1025C00039FE40B12368FF225A6204236377002357
:1025D0002377012708E02368FF225A6201236377EB
:1025E0000023237700E002273846F8BD5C8C000802
:1025F000F8B504460D461646012A04D94FF40E716B
:10260000154801F07FFE23689B6A6B6023681B6995
:10261000C3F30E03AB6023681B6803F07F3323F022
:10262000FE431A0C02F03F002870C3F306276F70B8
:1026300003F07F04AC7002F04002EA7056B9FFF775
:10264000CFFE28703846FFF7CBFE68702046FFF7B4
:10265000C7FEA8700020F8BD5C8C000870B5044669
:102660000D461646012A04D940F26521584801F06A
:1026700049FE237F012B00F0A8800123237702234A
:1026800063773EB96B7813F0100F03D023F010037B
:102690000A336B702B78013BDBB2062B04D940F276
:1026A00071214B4801F02EFE66BBEB78632B04D9F9
:1026B00040F27521464801F025FE6B78013BDBB204
:1026C0000B2B04D940F27621414801F01BFEAB7878
:1026D000013BDBB21E2B04D940F277213C4801F0CC
:1026E00011FEE878FFF770FE06046878FFF76CFECD
:1026F00046EA0026A878FFF767FE30432D7840EAC7
:10270000453529E0E878FFF76BFE632804D94FF4DC
:1027100020712F4801F0F6FD6878FFF761FE01385F
:102720000B2804D940F28221294801F0EBFDA8785A
:10273000FFF756FE01381E2804D94FF421712448B2
:1027400001F0E0FDE8786B781B0243EA0040AB78CB
:102750000343287843EA40352368CA225A62236833
:1027600053225A622046FFF77FFD064640B1236898
:10277000FF225A620423637700232377012625E092
:10278000236825F07F4020F0C00058602268D3689D
:1027900023F08003D36023689B6813F0200F0CD1D3
:1027A0002046FFF747FD40B12368FF225A62042309
:1027B000637700232377012608E02368FF225A620B
:1027C000012363770023237700E00226304670BDA3
:1027D0005C8C0008F8B506460C461546012A04D95B
:1027E00040F2D521104801F08DFD33685B6823F07D
:1027F0007F4323F0C003180CE070C3F30427677015
:1028000003F03F06A670C3F34233237055B9FFF7B8
:10281000E7FDE0703846FFF7E3FD60703046FFF7F4
:10282000DFFDA0700020F8BD5C8C0008F8B5044600
:102830000E461546042A06D9062A04D040F2423133
:102840003B4801F05FFDB6F5803F04D340F24331D1
:10285000374801F057FD237F012B66D001232377F2
:10286000022363772368CA225A62236853225A627A
:1028700023689B6813F4806F16D003F067FD07464A
:102880000DE003F063FDC01BB0F57A7F07D9236824
:10289000FF225A620320607700232377F8BD236864
:1028A000DB6813F0040FECD12268936823F4806393
:1028B000936003F04BFD07460DE003F047FDC01B9E
:1028C000B0F57A7F07D92368FF225A620320607728
:1028D00000232377F8BD2368DA6812F0040FECD0E8
:1028E0005E612268936823F007039360226893680F
:1028F0001D4395600F4B1A6842F480021A609A6873
:1029000042F480029A602268936843F480439360A3
:102910002268936843F4806393602368FF225A62BD
:102920000123637700202077F8BD0220F8BD00BFA7
:102930008C8C0008003C014070B506460C461546DC
:10294000132904D94FF48B61034801F0DBFC336891
:10295000503343F8245070BD8C8C000838B50546C0
:102960000C46132904D940F26F41044801F0CAFC17
:102970002B68503353F8240038BD00BF8C8C0008FE
:1029800001684B6BC3F3C0134FF4803203E04B6B11
:10299000C3F3C013013A0AB1002BF8D022B140F2C0
:1029A000FF538B63002070470320704701684B6B17
:1029B00013F0450F14BF012200224FF4803306E0CC
:1029C0004A6B12F0450F14BF01220022013B0AB9E5
:1029D000002BF5D14A6B02F0040203B11AB10423B3
:1029E0008B63032070474B6B13F0400F03D04023E1
:1029F0008B63002070472920704700BF03685A6B23
:102A000012F0450FFAD05A6B12F0040F03D00422D3
:102A10009A630320704740F2FF529A630020704788
:102A200003685A6B12F0450FFAD05A6B12F0040F7C
:102A300003D004229A63032070475A6B12F0010FEF
:102A400002D001209863704740F2FF529A63002041
:102A5000704700BF38B503685A6B12F0450FFAD0C3
:102A60005A6B12F0040F03D004229A63032038BD7E
:102A70005A6B12F0010F02D00120986338BD0D4649
:102A80000446184601F08AFBA84243D1236840F26D
:102A9000FF529A63002001F085FB334B0340DBB308
:102AA00000283BDB10F0804F3AD110F0005F39D1A5
:102AB00010F0805F38D110F0006F37D110F0806FC8
:102AC00036D110F0807F35D110F4000F34D110F4DE
:102AD000800F33D110F4001F32D110F4801F31D198
:102AE00010F4002F30D110F4802F2FD110F4003FBC
:102AF0002ED110F4803F2DD110F4004F2CD110F4C2
:102B0000804F2BD110F4005F2AD110F0080F29D08C
:102B10001A2038BD102038BD002038BD1C2038BD1B
:102B2000092038BD0A2038BD0B2038BD0C2038BD27
:102B30000D2038BD0E2038BD0F2038BD102038BD07
:102B4000112038BD122038BD132038BD142038BDE7
:102B5000152038BD162038BD172038BD182038BDC7
:102B6000192038BD002038BD08E0FFFD2DE9F041F7
:102B700086B0044600258DF803505B4E3560006832
:102B800001F0C2FA012003F0E7FB01233360019555
:102B90000295039504954FF48063059301A920687D
:102BA00001F0BAFA2046FFF7EBFE8DF803009DF81E
:102BB000033013F0FF0F03D09DF80300C0B28FE085
:102BC0004FF4D5730193082302934023039301A983
:102BD000206801F0A1FA2046FFF7E8FE8DF8030017
:102BE0009DF8033013F0FF0F04D1012323624FF04F
:102BF000804801E04FF0000800230193372502953B
:102C000001A9206801F088FA29462046FFF722FF33
:102C10008DF803009DF8033013F0FF0F45D05CE002
:102C200000230193372602964022039204934FF427
:102C30008063059301A9206801F06EFA31462046B1
:102C4000FFF708FF8DF803009DF8033013F0FF0F26
:102C500003D09DF80300C0B242E048F0004343F4C3
:102C600080130193292302934023039300230493A9
:102C70004FF48063059301A9206801F04DFA2046C6
:102C8000FFF7BCFE8DF803009DF8033013F0FF0F33
:102C900003D09DF80300C0B222E0002001F082FAC8
:102CA000002800DA0127013502E000273D463846BA
:102CB0001FB94FF6FE739D42B2D94FF6FE739D4287
:102CC00006D91B238DF803309DF80300C0B207E03E
:102CD00010F0804F01D0022323629DF80300C0B2A0
:102CE00006B0BDE8F08100BFA080254230B587B0B6
:102CF0000446019207250295402303930023049381
:102D00004FF48063059301A9006801F005FA294694
:102D10002046FFF79FFE07B030BD00BFF1B170B590
:102D200086B00E460446436A1B0401930D250295A6
:102D300040230393002304934FF48063059301A978
:102D4000006801F0E9F929462046FFF783FE0446B2
:102D500030B901F027FA3060204601E026207047A4
:102D600006B070BD00B583B002A9002341F8043D50
:102D7000FFF7D4FF18B90198C0F3432000E0FF200B
:102D800003B05DF804FB00BF70B503685C6B14F022
:102D9000450FFAD05C6B14F0040F03D004229A6341
:102DA000032070BD5C6B14F0010F02D0012098630A
:102DB00070BD16460D460446184601F0EFF9A842CC
:102DC00018D1236840F2FF529A63002001F0EAF91B
:102DD00010F4604F03D1000C3080002070BD10F45F
:102DE000005F09D110F4804F08D110F4004F07D0D4
:102DF0000F2070BD102070BD132070BD102070BD5D
:102E0000002070BD30B587B004460D460022009208
:102E1000436A1B0401930D230293402303930492FE
:102E20004FF48063059301A9006801F075F92068EB
:102E3000436B13F0450FFAD0436B13F0040F03D02C
:102E400004238363032092E0436B13F0010F03D04C
:102E50000123836318468AE001F0A0F90D285DD1B3
:102E6000236840F2FF529A63002001F09BF9009022
:102E7000009BC3F343232B70009A3E4B1340002B5F
:102E80004ED0009B002B4DDB009B13F0804F4BD1AD
:102E9000009B13F0005F49D1009B13F0805F47D186
:102EA000009B13F0006F45D1009B13F0806F43D15E
:102EB000009B13F0807F41D1009B13F4000F3FD1A2
:102EC000009B13F4800F3DD1009B13F4001F3BD1F6
:102ED000009B13F4801F39D1009B13F4002F37D1CE
:102EE000009B13F4802F35D1009B13F4003F33D1A6
:102EF000009B13F4803F31D1009B13F4004F2FD17E
:102F0000009B13F4804F2DD1009B13F4005F2BD155
:102F1000009B13F0080F29D01A2028E0102026E08B
:102F2000002024E01C2022E0092020E00A201EE0EE
:102F30000B201CE00C201AE00D2018E00E2016E0FB
:102F40000F2014E0102012E0112010E012200EE0FB
:102F500013200CE014200AE0152008E0162006E0FB
:102F6000172004E0182002E0192000E0002007B03C
:102F700030BD00BF08E0FFFD30B587B00446012337
:102F8000ADF80230006801F0C3F8002864D0236A6D
:102F9000042B23D00023019302220292C022039229
:102FA00004934FF48063059301A9206801F0B4F8FD
:102FB0002046FFF735FD054600284FD101F0F2F815
:102FC000A063042001F0EEF8E063082001F0EAF8C5
:102FD00020640C2001F0E6F8606400E00025236A1C
:102FE000012B03D9062B01D0022B0FD1032502950B
:102FF0004023039301A9206801F08EF80DF102022D
:1030000029462046FFF7C0FE054640BB236A042B35
:1030100026D0BDF8023063621B040193092302939A
:10302000C023039301A9206801F076F82046FFF73A
:10303000F7FC0546B0B901F0B5F8A062042001F034
:10304000B1F8E062082001F0ADF820630C2001F037
:10305000A9F86063284605E0252003E002E001E0CE
:103060002846FFE707B030BDF0B58FB004460E46E6
:103070000023019302930822099210250A95402209
:103080000B920C934FF480630D9309A9006801F033
:1030900043F829462046FFF7DDFC00287FD1636A0C
:1030A000AB40099337250A9509A9206801F034F847
:1030B00029462046FFF7CEFC002871D14FF0FF33A0
:1030C00003930823049330230593022306930025DA
:1030D00007950123089303A9206801F07FF809955B
:1030E00033250A9509A9206801F016F829462046DB
:1030F000FFF7B0FC0546002853D1002709E0436BD9
:1031000013F4001F05D000F0F5FF01AB43F82700D2
:1031100001372068426B40F22A631A42EFD0436BBA
:1031200013F0080F03D008238363042039E0436BB6
:1031300013F0020F03D002238363184631E0436B80
:1031400013F0200F03D020238363062029E0436B74
:1031500013F4007F04D04FF400738363072020E052
:1031600040F2FF53836301990B0203F47F0343EAA8
:1031700001630A0A02F47F42134343EA1163736056
:1031800002990B0203F47F0343EA01630A0A02F483
:103190007F42134343EA11633360284601E000E0B5
:1031A000FFE70FB0F0BD00BF30B589B00446002086
:1031B0000190029000F0F6FF10F0007F2AD101A9E3
:1031C0002046FFF751FF38BB029B13F4802F24D019
:1031D000636A1B040393372504954023059300235A
:1031E00006934FF48063079303A9206800F094FFCF
:1031F00029462046FFF72EFC88B9022303930625B3
:10320000049503A9206800F087FF29462046FFF7B0
:1032100021FC04E00E2002E001E02520FFE709B0D8
:1032200030BD00BF30B589B0044600200190029047
:1032300000F0B8FF10F0007F2AD101A92046FFF767
:1032400013FF38BB029B13F4803F24D0636A1B0436
:1032500003933725049540230593002306934FF4E9
:103260008063079303A9206800F056FF2946204693
:10327000FFF7F0FB88B9002303930625049503A903
:10328000206800F049FF29462046FFF7E3FB04E0F1
:103290000E2002E001E02520FFE709B030BD00BFAD
:1032A000704700BF704700BF704700BF10B50446AD
:1032B00003685A6B12F4807F09D04FF480729A63CE
:1032C000012383640023C364FFF7ECFF35E05A6BEE
:1032D00012F0020F05D002229A63C264FFF7E4FFE6
:1032E0002BE05A6B12F0080F06D008229A630423D1
:1032F000C364FFF7D9FF20E05A6B12F0200F06D00D
:1033000020229A630623C364FFF7CEFF15E05A6BB1
:1033100012F0100F06D010229A630523C364FFF742
:10332000C3FF0AE05A6B12F4007F06D04FF400721C
:103330009A630723C364FFF7B7FF2268D36B23F4B4
:10334000434323F03A03D36310BD00BF2DE9F003DC
:10335000034690F8202081F85620828CA1F8542052
:10336000826A900F0870C2F383604870C2F30162F2
:103370008A7093F82A20CA7093F829200A7193F86A
:1033800028204A7193F82F201201CA80D88DCA884C
:1033900092B2C0F303142243CA8000F00F000872F7
:1033A00093F82D20D0094872C2F380108872C2F3BE
:1033B0004010C872C2F30010087300204873186AE6
:1033C000012840D8920202F440620A61DA6A086970
:1033D000920002F47F7202430A611A6B086940EAA4
:1033E00092700861C2F3C2600875C2F302624A7546
:1033F0005A8ED0B244098C75C0F38200C875520051
:1034000002F006020A7693F83120087E40EAD210D4
:1034100008760C69651C00208D64C8640C7E02343B
:10342000012707FA04F4A4FB0545C1E912450E7A09
:10343000F6B207FA06F60E65A6FB048906FB0599A7
:10344000C1E9128924E0022821D1DA6A120402F4C7
:103450007C120A6193F833000A6942EA00220A6189
:1034600093F832000A6902430A6193F831200C692B
:103470000025013445F10005E80440EA5430E40435
:103480008C64C8644FF400700865002000E02920B7
:10349000C2F380144C76520002F07E028A761A6BD8
:1034A0008D7EC2F3C0142C438C7602F07F02CA7664
:1034B0005A6B140ED50F0D77C2F341754D77C2F3D9
:1034C00082628A77A20002F00C02CA77DA8ED4B246
:1034D000CD7F45EA9415CD77C4F3401481F82040A0
:1034E000002481F8214002F0010281F822205C6B67
:1034F000240AE2B2D50981F82350C2F3801581F87D
:103500002450C2F3401581F82550C2F3001581F80C
:103510002650C2F3810281F8272004F0030481F8C9
:1035200028405A6BC2F3460281F82920012481F811
:103530002A4093F83B2081F82C2093F83A2012027D
:10354000CA8593F83950CA8D92B22A43CA859A6BBC
:1035500012060A6393F83F500A6B42EA05420A6377
:10356000DA8F0D6B120202F47F422A430A6393F84A
:103570003D500A6B2A430A6393F83C2081F83420BB
:1035800093F8432081F83520B3F8422012068A636D
:103590001A6C120A8D6B120402F47F022A438A63AA
:1035A0001A6C8D6B120202F47F422A438A6393F8ED
:1035B00047508A6B2A438A6393F8462091F83C501F
:1035C00045EA121581F83C50120202F47062CA8773
:1035D00093F84550CA8F92B22A43CA875B6CC3F3F3
:1035E000460381F8403081F84140BDE8F003704760
:1035F00070B58CB005460E4600248DF82F40047738
:10360000FFF74EFE059406940794089409947623D8
:103610000A9308AB93E807008DE8070005AB0ECBD3
:10362000286800F001FD2846FFF7A0FA8DF82F006A
:103630009DF82F3013F0FF0F03D09DF82F00C0B27C
:1036400031E02846FFF798FC8DF82F009DF82F30C9
:1036500013F0FF0F03D09DF82F00C0B223E03146D6
:103660002846FFF773FE8DF82F009DF82F3013F0DA
:10367000FF0F08D1B6F85420120400232846FFF7A4
:1036800035FB8DF82F002B4653F8104B93E80700BD
:103690008DE80700043595E80E00204600F0C4FCD4
:1036A0009DF82F00C0B20CB070BD00BF036A032BA1
:1036B00030D0022B30D870B58AB00E460446B1F532
:1036C000805F0BD0B1F5006F03D1FFF76DFD0546AC
:1036D00007E029B9FFF7A6FD054602E0272500E02F
:1036E0002625DDB963680493A3680593E368069310
:1036F000079663690893A369099324680AAB13E9E1
:1037000007008DE8070004AB0ECB204600F08CFCD0
:10371000284604E0272070470020704728460AB05A
:1037200070BD00BF30B587B00446002301930C255F
:1037300002954022039204934FF48063059301A9FC
:10374000006800F0E9FC29462046FFF783F907B03E
:1037500030BD00BF2DE9F0478CB004460E469146BF
:10376000149FDDF854A002680021D162026A022A87
:1037700005D14FEA592242EAC3594FF4007707971F
:10378000102508954023099300230A934FF4806382
:103790000B9307A9206800F0BFFC29462046FFF7DD
:1037A00059F9002840F0A9804FF0FF3301930AFB3C
:1037B00007F30293902303930223049300230593BA
:1037C0000123069301A9206800F008FDBAF1010F5A
:1037D00002D91223089301E0112308930CA941F8A0
:1037E000149D206800F098FCBAF1010F20D9122135
:1037F0002046FFF72FF9054698B17FE05B6B13F485
:10380000004F0ED007E0206800F074FC46F8280056
:1038100008F1010801E04FF00008B8F1070FF2D9F4
:1038200020362368596B40F22A321142E6D01FE05D
:1038300011212046FFF70EF9054698B15FE05B6B5A
:1038400013F4004F0ED007E0206800F053FC46F858
:10385000280008F1010801E04FF00008B8F1070F57
:10386000F2D920362368596B40F22A621142E6D021
:1038700023685B6B13F4807F09D0BAF1010F06D97E
:10388000236A022B03D82046FFF74CFF0546236826
:103890005A6B12F0080F03D008229A6304202EE01E
:1038A0005A6B12F0020F03D002259D63284626E0D2
:1038B0005A6B12F0200F03D020229A6306201EE0DC
:1038C0005A6B12F4007F0AD04FF400729A630720FB
:1038D00015E000F00FFC46F8040B013F01E04FF04B
:1038E000FF372068436B13F4001F01D0002FF0D185
:1038F00040F2FF538363284601E000E0FFE70CB08D
:10390000BDE8F0872DE9F0478CB004460D4691469E
:10391000149E159F00228DF803200168CA62026A76
:10392000022A05D14FEA592242EAC3594FF40076E0
:1039300007964FF01008CDF820804023099300230C
:103940000A934FF480630B9307A9206800F0E4FB0F
:1039500041462046FFF77EF8002840F0E980012F1D
:1039600002D91923089301E0182308930CA941F800
:10397000149D206800F0D0FB012F04D919212046A6
:10398000FFF768F803E018212046FFF763F80028E6
:1039900040F0CE8007FB06F64FF0FF33019302960E
:1039A000902303930023049305930123069301A915
:1039B000206800F013FC012F35D84FF000086DE0AF
:1039C0005B6B13F4804F30D0C8EB060ABAF11F0FBF
:1039D00020D81AF0030F02D14FEA9A0A03E04FEA07
:1039E0009A0A0AF1010A4FF0000908E02946206806
:1039F00000F084FB043508F1040809F10109D14500
:103A0000F4D312E005EB8901206800F077FB09F19F
:103A1000010901E04FF00009B9F1070FF2D9203593
:103A200008F1200801E04FF000082368596B40F2CC
:103A30001A321142C4D037E05B6B13F4804F2DD0A3
:103A4000C8EB060ABAF11F0F20D81AF0030F02D1F3
:103A50004FEA9A0A03E04FEA9A0A0AF1010A4FF084
:103A6000000908E02946206800F048FB043508F109
:103A7000040809F10109D145F4D30FE005EB8901F0
:103A8000206800F03BFB09F1010901E04FF000095B
:103A9000B9F1070FF2D9203508F120082368596BD6
:103AA00040F21A621142C7D023685B6B13F4807F27
:103AB00007D0012F05D9236A022B02D82046FFF731
:103AC00031FE23685A6B12F0080F03D008229A6364
:103AD00004202DE05A6B12F0020F02D002209863EE
:103AE00026E05A6B12F0100F03D010229A630520C3
:103AF0001EE05A6B12F4007F04D04FF400729A63F8
:103B0000072015E040F2FF529A630DF103012046B1
:103B1000FFF778F904E00DF103012046FFF772F991
:103B200030B99DF80330063BDBB2012BF3D9FFE738
:103B30000CB0BDE8F08700BF08B5FFF713F9042803
:103B400003D0FF2803D1022008BD002008BD0120BA
:103B500008BD00BF704700BF10B504460368234A84
:103B6000934237D0B3F1804F34D0A2F57C429342D8
:103B700030D002F5806293422CD002F580629342ED
:103B800028D002F58062934224D002F580629342ED
:103B900020D002F5704293421CD002F5705293423D
:103BA00018D002F58062934214D002F580629342ED
:103BB00010D0A2F5983293420CD002F58062934265
:103BC00008D002F58062934204D04FF4B2710848E5
:103BD00000F098FB2268D36843F00103D3602268A9
:103BE000136843F001031360002010BD0000014082
:103BF000C08C0008704700BF704700BF704700BF0F
:103C0000704700BF10B5044603681A6912F0020F2E
:103C100017D0DA6812F0020F13D06FF002021A61A7
:103C20000123037603689B6913F0030F02D0FFF7AB
:103C3000E3FF04E0FFF7DEFF2046FFF7DFFF00238E
:103C4000237623681A6912F0040F19D0DA6812F08B
:103C5000040F15D06FF004021A6102232376236843
:103C60009B6913F4407F03D02046FFF7C5FF05E0B2
:103C70002046FFF7BFFF2046FFF7C0FF0023237653
:103C800023681A6912F0080F19D0DA6812F0080FC9
:103C900015D06FF008021A61042323762368DB69CC
:103CA00013F0030F03D02046FFF7A6FF05E02046E0
:103CB000FFF7A0FF2046FFF7A1FF0023237623682C
:103CC0001A6912F0100F19D0DA6812F0100F15D01F
:103CD0006FF010021A61082323762368DB6913F45E
:103CE000407F03D02046FFF787FF05E02046FFF71F
:103CF00081FF2046FFF782FF0023237623681A699D
:103D000012F0010F09D0DA6812F0010F05D06FF040
:103D100001021A61204600F07BF923681A6912F04B
:103D2000800F09D0DA6812F0800F05D06FF08002A2
:103D30001A61204600F026F923681A6912F0400F34
:103D400009D0DA6812F0400F05D06FF040021A6116
:103D50002046FFF755FF23681A6912F0200F09D09B
:103D6000DA6812F0200F05D06FF020021A612046A9
:103D700000F006F910BD00BF0368454A904214D018
:103D8000B0F1804F13D0A2F57C42904211D002F5E1
:103D9000806290420FD002F5806290420DD002F511
:103DA000784290420BD101220AE0012208E0012270
:103DB00006E0012204E0012202E0012200E00022EC
:103DC0001AB123F070034A681343314A90422CD051
:103DD000B0F1804F2BD0A2F57C42904229D002F561
:103DE0008062904227D002F58062904225D002F591
:103DF0007842904223D002F57052904221D002F5D1
:103E0000806290421FD002F5806290421DD0A2F5E0
:103E1000983290421BD002F58062904219D002F590
:103E20008062904217D1012216E0012214E00122A3
:103E300012E0012210E001220EE001220CE001223A
:103E40000AE0012208E0012206E0012204E001224A
:103E500002E0012200E000221AB123F44073CA6894
:103E6000134303608B68C3620B688362084B9842FC
:103E700005D003F58063984203D1012302E00123BA
:103E800000E000230BB10B6903630123436170471A
:103E90000000014000286DD010B504460368364A82
:103EA000934236D0B3F1804F33D0A2F57C42934297
:103EB0002FD002F5806293422BD002F580629342AC
:103EC00027D002F58062934223D002F580629342AC
:103ED0001FD002F5704293421BD002F570529342FC
:103EE00017D002F58062934213D002F580629342AC
:103EF0000FD0A2F5983293420BD002F58062934224
:103F000007D002F58062934203D0D9211B4800F00C
:103F1000F9F9A3685BB1102B09D0202B07D0402BF7
:103F200005D0602B03D0DA21144800F0EBF92369A7
:103F30004BB1B3F5807F06D0B3F5007F03D0DB2112
:103F40000E4800F0DFF994F8393013F0FF0F05D177
:103F5000002384F838302046FFF7FCFD022384F864
:103F60003930211D2068FFF707FF012384F839301D
:103F7000002010BD0120704700000140C08C0008E7
:103F8000704700BF704700BF00B589B000220146EE
:103F90003620FCF77DFA3620FCF7BCFA00230193AB
:103FA000174B1A6C42F010021A641B6C03F01003DA
:103FB0000193019B02A903A8FEF744F8069B13B9DD
:103FC000FEF728F802E0FEF725F840000D4BA3FBB2
:103FD00000239B0C013B0C480C4A026040F2E73284
:103FE000C2604360002303618360FFF753FF18B989
:103FF0000548FFF7B1FD00E0012009B05DF804FBC2
:104000000038024083DE1B434005002000100040C2
:1040100008B502F059F908BD08B50248FFF7F2FDEE
:1040200008BD00BF4005002084B02DE9F0470546DB
:1040300009A880E80E002D4B9D4203D0DD212C48BD
:1040400000F060F9DDF824A0BAF1000F06D0BAF54F
:10405000005F03D0DE21264800F054F90A9C34B1F9
:10406000B4F5806F03D0DF21214800F04BF9DDF873
:104070002C90B9F1000F06D0B9F5007F03D0E021F4
:104080001B4800F03FF90C9E4EB1B6F5006F06D00C
:10409000B6F5805F03D0E121154800F033F9DDF873
:1040A0003480B8F1000F06D0B8F5804F03D0E2217C
:1040B0000F4800F027F90E9FFF2F03D9E3210C488A
:1040C00000F020F94AEA040349EA0303334348EACB
:1040D00003033B436A6822F4FD4222F07F0213434C
:1040E0006B600020BDE8F04704B07047002C014031
:1040F000F08C0008D0F88000704700BF0B68C0F853
:1041000080300020704700BF032303600020704709
:10411000006800F00300704738B505460C464B6850
:104120003F2B04D94FF4B4711B4800F0EBF8A3689F
:1041300043B1402B06D0C02B04D040F26911164881
:1041400000F0E0F8E36853B1B3F5807F07D0B3F532
:10415000007F04D04FF4B5710F4800F0D3F8236905
:104160003BB1B3F5806F04D040F26B110A4800F008
:10417000C9F82368AB606168A3681943E3680B431F
:10418000226943EA0201EA6822F47F6323F00F0305
:104190000B43EB60002038BDF08C00080069C0B212
:1041A000704700BF10B582B000230193044650B1A0
:1041B000042808D0082806D00C2804D04FF4CB716E
:1041C000044800F09FF8044B23440193019B1868B6
:1041D00002B010BDF08C0008142C014038B5054623
:1041E0000C464B68B3F1007F04D340F2AB11294871
:1041F00000F088F8A36803B3102B1ED0202B1CD02E
:10420000302B1AD0402B18D0502B16D0602B14D046
:10421000702B12D0802B10D0902B0ED0A02B0CD056
:10422000B02B0AD0C02B08D0D02B06D0E02B04D066
:104230004FF4D671174800F065F8E36833B1022BEC
:1042400004D040F2AD11134800F05CF8236933B19B
:10425000042B04D04FF4D7710E4800F053F8636973
:10426000012B04D940F2AF110A4800F04BF8236843
:104270006B626368AB62A268E3681A432369134305
:1042800062691A43EB6A23F0F7031343EB620020E1
:1042900038BD00BFF08C0008FEE700BF08B503483A
:1042A00000F052F80120FFF7F7FF00BF208D000853
:1042B00008B50D4B1B6813B90C4A0B4B1A600A4B1F
:1042C0001A68C31C23F00303134409498B4206D91F
:1042D00003F06AFF0C2303604FF0FF3008BD024972
:1042E0000B60104608BD00BF04020020840A0020B5
:1042F00000FC012001230360014B0B60704700BFED
:104300000400002008B50A460146024800F004F8FF
:10431000FFF7C4FF748D00080FB400B583B004AB81
:1043200053F8042B01938021064804F057F8002825
:1043300003DD0146034800F049F803B05DF804EBE3
:1043400004B070470C02002010B5044604F012F8C7
:104350000146204600F03AF80121024800F036F804
:1043600010BD00BF648E00082DE9F04385B00446FF
:104370000F46435613BB042528462146ABBE0446D0
:104380001FE03546102E28BF1025002306E014F943
:10439000011B04AA1A4402F8101C0133AB42F6D3E5
:1043A00004AA1344002203F8102CE9464FF0040835
:1043B00040464946ABBE8046761B00E00E46002EC6
:1043C000DFD1384605B0BDE8F08300BF08B5FFF780
:1043D000CBFF08BD08B500F091F8024B024A9A6085
:1043E00008BD00BF00ED00E000000008F8B504467D
:1043F0000D4617461E462648FFF78EFF21682548C2
:10440000FFF78AFF61682448FFF786FFA168234809
:10441000FFF782FFE1682248FFF77EFF216921480C
:10442000FFF77AFF61692048FFF776FFA1691F480F
:10443000FFF772FFE1691E48FFF76EFF1D48FFF7A7
:104440006BFF29461C48FFF767FF1C4CE16A1C48BC
:10445000FFF762FF216B1B48FFF75EFFE16B1A4815
:10446000FFF75AFF15F0800F03D039461748FFF7C2
:1044700053FF15F4004F03D031461548FFF74CFFAA
:104480001448FFF749FF06991348FFF745FFF8BDA9
:10449000CC8D0008DC8D0008EC8D0008FC8D000838
:1044A0000C8E00081C8E00082C8E00083C8E000824
:1044B0004C8E00085C8E0008688E000800ED00E05D
:1044C000788E0008888E0008988E0008A88E000854
:1044D000B88E0008C88E0008D08E000883691A883C
:1044E0008A4207D10268033A012A05D80233836160
:1044F0000120704700207047002070470C4B1A685D
:1045000042F001021A60002199601A6822F0847258
:1045100022F480321A60074A5A601A6822F4802214
:104520001A60D9604FF00062034B9A60704700BF79
:10453000003802401030002400ED00E0224B9B6860
:1045400003F00C03042B07D0082B09D0002B2DD12E
:104550001E4A1F4B1A602CE01E4A1D4B1A6028E0B1
:10456000194B5A685B6803F03F0312F4800F09D0BF
:10457000184AB2FBF3F2144B5B68C3F3881303FBD6
:1045800002F208E0114AB2FBF3F30F4A5168C1F39B
:10459000881101FB03F20C4B5B68C3F30143013349
:1045A0005B00B2FBF3F30A4A136002E0074A084BD0
:1045B0001A60054B9B68C3F30313074AD15C044A96
:1045C0001368CB4013607047003802400024F400A9
:1045D0000C00002000127A00148F000801207047A0
:1045E000012070470120704701207047012070476B
:1045F000012070470120704701207047012070475B
:10460000012070470120704701207047012070474A
:10461000012070470120704701207047012070473A
:1046200001207047012070470120704708B500EB5A
:1046300080008300034AD3580BB1984708BD04207B
:1046400008BD00BF1000002008B500EB800083000B
:10465000034A13445B680BB1984708BD042008BDAA
:10466000100000207BB138B51C4600EB80008300B1
:10467000074803441D6945B12346144608461A46B7
:104680002146A84738BD04207047042038BD00BF2C
:10469000100000207BB138B51C4600EB8000830081
:1046A00007480344DD6845B12346144608461A46C8
:1046B0002146A84738BD04207047042038BD00BFFC
:1046C0001000002008B500EB80008300044803447C
:1046D0009B681BB108461146984708BD042008BDD9
:1046E0001000002001207047012070472DE9F04F95
:1046F00085B000250295494B5A6C42F400625A6419
:104700005A6C02F400620292029A03951A6B42F408
:1047100080021A631B6B03F480030393039B0C2634
:1047200001960224009401232A464FF4F8513C4894
:1047300001F0EAFE0196009401232A46042139483B
:1047400001F0E2FE2A4605213120FBF7A1FE3120CF
:10475000FBF7E0FE344C4FF0006BC4F804B0A560EA
:10476000E5604FF4806AC4F810A04FF48059C4F893
:1047700014904FF48048C4F818802027E7614FF464
:1047800040332362042363620323A3624FF40003D4
:10479000E3624FF400132363244B2360244EB4657B
:1047A000A6632046FCF72CF82046FBF719FF214CA6
:1047B000C4F804B04023A360E560C4F810A0C4F8B6
:1047C0001490C4F81880E7614FF440332362042347
:1047D00063620323A3624FF40003E3624FF4001308
:1047E0002363154B2360F465A6632046FCF708F8A5
:1047F0002046FBF7F5FE2A4606213B20FBF748FE44
:104800003B20FBF787FE2A4606214520FBF740FEAA
:104810004520FBF77FFE05B0BDE8F08F0038024071
:1048200000080240000C02408C0200205864024044
:1048300040030020A0030020A064024008B5FFF759
:1048400051FF08BD10B5144B144A1A6000225A607B
:104850009A60DA601A615A619A61FFF747FFFFF7C1
:10486000EDFF012810D104460D490B48FEF7C0FEAC
:1048700008B9002300E0012343B94FF40061064862
:10488000FEF714FF20B104E0012402E01C4600E022
:104890000024204610BD00BF40030020002C014032
:1048A000E802002008B50122094B1A70FFF7CAFF81
:1048B00028B9074A137803F0FE03137004E0044A92
:1048C000137843F001031370014B187808BD00BF43
:1048D000C400002000B583B00599019104990091AE
:1048E00001460548FEF736FF08B1012000E0002030
:1048F00003B05DF804FB00BF4003002000B583B0A7
:1049000001924FF4007300934A020023FFF7E2FF85
:1049100008B1012000E0002003B05DF804FB00BFF7
:1049200000B583B0059901910499009101460548AD
:10493000FEF7E8FF08B1012000E0002003B05DF8B9
:1049400004FB00BF4003002000B583B001924FF488
:10495000007300934A020023FFF7E2FF08B1012031
:1049600000E0002003B05DF804FB00BF08B501467D
:104970000148FEF7EBFC08BD40030020154B1B78F7
:1049800013F0010F1FD103281FD8DFE800F0020940
:104990000417002070474FF400730B80002070470D
:1049A00010B596B00C466846FFF7E0FF129B5B0A15
:1049B000139A43EAC2532360002008E04FF40073C7
:1049C0000B6001207047032070470420704716B029
:1049D00010BD00BFC400002008B50248FFF7ACF8C6
:1049E00008BD00BF4003002008B50122104B1A701B
:1049F000FFF7F2FF28B90E4A137803F0FE03137095
:104A000004E00B4A137843F001031370FFF76CFEC8
:104A100028B1074A137803F0FB03137004E0044A3B
:104A2000137843F004031370014B187808BD00BFDE
:104A3000C400002008B5024B986DFBF70DFF08BDC0
:104A40004003002008B5024BD86DFBF705FF08BDF9
:104A50004003002008B50248FEF728FC08BD00BF4F
:104A6000400300204278007840EA0220704700BFEF
:104A7000C278837843EA0222437843EA022300782B
:104A800040EA0320704700BF0170090A4170704777
:104A90000170C1F307234370C1F307438370090E0C
:104AA000C170704713462AB10A7802700130013193
:104AB000013BF9D1704700BF01700130013AFBD1D1
:104AC000704700BF30B4451C037808781B1A013AC0
:104AD00004D04C1C28462146002BF4D0184630BC8C
:104AE000704700BF00E0013090F900300BB18B42FD
:104AF000F9D11846704700BF30B400252B4617E0A7
:104B00001A01194CA2588AB10468A2420FD1164A60
:104B100002EB031254688268944208D1124A02EBF5
:104B2000031294684269944201D103E001250133E4
:104B3000092BE5D90A2B04D16DB902290DD100202A
:104B400010E061B9084A02EB03139B89B3F5807F3B
:104B500007D1102006E0002004E0122002E010201F
:104B600000E0002030BC7047FC030020002000E083
:104B70000130092804D80301034AD358002BF7D188
:104B80000A3818BF01207047FC03002070B40023CE
:104B900014E01A01254CA458026894420DD1234A0E
:104BA00002EB031254688268944206D11F4A02EB5A
:104BB000031294684269944202D00133092BE8D968
:104BC0000A2B17D101E0013300E00023092B04D8A0
:104BD0001A01164CA258002AF5D10A2B20D00668DB
:104BE000124D1C012A192E5184685460406990604E
:104BF0000020908121B10D4A02EB031292898AB9FB
:104C000031B90A4A02EB03129189013189B201E0FC
:104C10004FF48071054A02EB03129181581C02E0A7
:104C2000002000E0002070BC704700BFFC030020A3
:104C30000138092814D80C4B03EB00139B89B3F5FA
:104C4000807F00D100230BB1013B9BB2064A02EBEF
:104C50000012938133B903010020034AD0507047FA
:104C60000220704700207047FC03002010B400238E
:104C700008E01A0105498A58824202D11A0100242B
:104C80008C500133092BF4D910BC7047FC03002071
:104C900002398369023B994204D24389C06A01FB0D
:104CA000030070470020704770B506460D4601F1BD
:104CB0001A00FFF7D7FE04463378032B05D105F120
:104CC0001400FFF7CFFE44EA004070BD70B5064601
:104CD0000C46154691B204F11A00FFF7D5FE337861
:104CE000032B04D1290C04F11400FFF7CDFE70BD95
:104CF0002DE9F84F824689460D6800F124080B2201
:104D000020214046FFF7D8FE95F900302E2B21D107
:104D100000210B465A1CEB5C2E2B06D1022A04D82C
:104D200008F8013013460131F4E72F2B03D05C2B38
:104D300001D0202B5AD81544C9F80050202B01D897
:104D4000242300E020238AF82F300020BDE8F88FCC
:104D5000334603E000273B464FF0080B5E1CEB5642
:104D6000DCB2202C2DD92F2C03D05C2C07D100E0F5
:104D70000136AB572F2BFBD05C2BF9D021E02E2C2A
:104D800001D0BB4508D8BBF10B0F32D02E2C33D14C
:104D900008274FF00B0BDBE7002B02DA803C1B4BA4
:104DA0001C5D21461A48FFF79DFE40BBA4F161033C
:104DB000DBB2192B01D8203CE4B208F807400137D8
:104DC000C6E73544C9F80050E7B19AF82430E52B1E
:104DD00002D105238AF82430202C01D8042300E0D6
:104DE00000238AF82F300020BDE8F88F0620BDE8A8
:104DF000F88F0620BDE8F88F0620BDE8F88F062062
:104E0000BDE8F88F0620BDE8F88F00BF488F000886
:104E1000C88F0008F0B5076827B94FF0FF30F0BD24
:104E2000013201E086463A4692F90030D9B2202993
:104E300001D93A2BF4D13A2B32D17B1C97F90000DF
:104E40003038092807D89A4205D108282BD80132D2
:104E5000CEF80020F0BD02F1010C0020154B53F8F4
:104E600020203B46561C92F900405D1C93F900102F
:104E7000CAB2A2F16103DBB2192B01D8203A51B2B8
:104E80001CB12B463246A142ECD00CB9AC4502D045
:104E900001300828E2D9082808D8CEF800C0F0BDB3
:104EA000054B1878F0BD4FF0FF30F0BD4FF0FF30EC
:104EB000F0BD00BF248F0008F8030020016000232C
:104EC00043608360704700BF38B50C4670B105463B
:104ED00003685BB11A784AB1D9888288914205D1BA
:104EE0005878FFF7B1FB10F0010F03D000232360C7
:104EF000092038BD2B682360002038BDF8B5C37881
:104F000003B30446066B00F13407012332463946E9
:104F10004078FFF7BFFBB8B90023E370636AF31A68
:104F2000E269934212D2A57808E0E3691E440123A6
:104F3000324639466078FFF7ADFB013D012DF4D8CC
:104F40000020F8BD0020F8BD0120F8BD0020F8BD0C
:104F500070B5036B8B4212D004460D46FFF7CEFFAF
:104F6000064668B901232A4604F134016078FFF748
:104F700079FB10B101264FF0FF35256300E00026D4
:104F8000304670BD10B504460023C3704FF0FF33A8
:104F90000363FFF7DDFF18BB04F23220FFF762FD69
:104FA0004AF6552398421DD194F83430E92B05D0A8
:104FB000636B03F0FF130F4A934215D104F16A00AB
:104FC000FFF756FD20F07F400B4B98420ED004F1C6
:104FD0008600FFF74DFD094B984209D1002010BD16
:104FE000042010BD032010BD022010BD002010BD04
:104FF000022010BDEB00900046415400464154335E
:105000002DE9F04784B00E46174600230B60FFF7EA
:1050100001FF051EC0F23281AD4B53F82540002C34
:1050200000F02E81346007F0FE07237873B16078BA
:10503000FFF70AFB10F0010F08D1002F00F02281CA
:1050400010F0040F40F0208100203EE10023237087
:10505000E8B26070FFF7EAFA10F0010F40F0168135
:105060001FB110F0040F40F0138100212046FFF71C
:1050700089FF022815D0002628E004F134002B0116
:1050800003F5DF73184403791BB10830FFF7F0FC18
:1050900000E0002004AB03EB850343F8100C01355E
:1050A00000E00025032DE8D9002504AB03EB8503C0
:1050B00053F8106C26B131462046FFF763FF00E03D
:1050C0000320012802D90135032DEED9042800F070
:1050D000E180012800F2E08004F13F00FFF7C2FC0C
:1050E000B0F5007F40F0DA8004F14A00FFF7BAFC27
:1050F000804620B904F15800FFF7BAFC8046C4F896
:105100001C8094F8449084F8029009F1FF33DBB2DC
:10511000012B00F2C58008FB09F994F84150658124
:10512000002D00F0BF806B1E1D4240F0BD8004F1D9
:105130004500FFF797FC8246208110F00F0F40F0EA
:10514000B58004F14700FFF78DFC074620B904F154
:105150005400FFF78DFC074604F14200FFF782FC84
:105160000346002800F0A48009EB000202EB1A12AB
:105170009742C0F09F80BF1AB7FBF5F5002D00F0F5
:105180009B804FF6F5718D4201D9032700E002277D
:1051900040F6F5718D4200D801270235A5612662DF
:1051A000334463623244E262032F10D104F15E00A3
:1051B000FFF758FC002840F08180BAF1000F7FD142
:1051C00004F16000FFF754FCA062AD000EE0BAF1FC
:1051D000000F77D04B44A362022F01D16D0005E090
:1051E00005EB450305F0010505EB530505F2FF1539
:1051F000B8EB552F68D34FF0FF332361E360802372
:105200002371032F2CD104F16400FFF72BFC01283C
:1052100026D1711C2046FFF79BFE08BB002323719B
:1052200004F23220FFF71EFC4AF65523984217D1AC
:1052300004F13400FFF71CFC264B984210D104F512
:105240000670FFF715FC244B984209D104F507704E
:10525000FFF70EFC206104F50870FFF709FCE06021
:1052600027701E4A138801339BB21380E380002508
:1052700065612046FFF7FAFC284626E00B2024E073
:105280000C2022E0002020E00A201EE003201CE089
:105290000A201AE0012018E00D2016E00D2014E08D
:1052A0000D2012E00D2010E00D200EE00D200CE08E
:1052B0000D200AE00D2008E00D2006E00D2004E09E
:1052C0000D2002E00D2000E00D2004B0BDE8F087C5
:1052D000A004002052526141727241619C0400207E
:1052E0002DE9F047012975D98369994274D217468F
:1052F0000C4606460378022B3ED0032B4FD0012BE1
:105300006CD101EB5108416A01EB5821FFF720FEF7
:105310000546002863D106F1340A08F10109C8F3F3
:10532000080814F0010407D01AF8083003F00F033E
:1053300043EA0713DBB200E0FBB20AF808300123AE
:10534000F370716A01EB59213046FFF701FE054603
:10535000002844D1C9F3080914B1C7F3071206E0C5
:105360001AF8093023F00F03C7F303221A430AF88F
:1053700009200123F37032E0416A01EB1421FFF7A9
:10538000E7FD054658BB06F13400630003F4FF73E4
:10539000B9B21844FFF778FB0123F3701FE0416AAC
:1053A00001EBD411FFF7D4FD0546C0B927F07047D3
:1053B00006F13403A10001F4FE715C182046FFF7EA
:1053C00057FB00F0704139432046FFF761FB012392
:1053D000F37004E0022502E0022500E002252846E1
:1053E000BDE8F087F8B50668012953D9B369994239
:1053F00052D20C463378022B2AD0032B38D0012B03
:105400004CD101EB5105716A01EB55213046FFF794
:105410009FFD002844D16F1CC5F30805354495F85D
:105420003450716A01EB57213046FFF791FD002897
:1054300039D1C7F30803334493F8340045EA002018
:1054400014F0010F01D00009F8BDC0F30B00F8BD46
:10545000716A01EB14213046FFF77AFD30BB06F18B
:105460003400610001F4FF710844FFF7FBFAF8BD56
:10547000716A01EBD4113046FFF76AFDC8B906F135
:105480003403A10001F4FE701844FFF7F1FA20F094
:105490007040F8BD0120F8BD0120F8BD0120F8BD25
:1054A0004FF0FF30F8BD4FF0FF30F8BD4FF0FF3048
:1054B000F8BD4FF0FF30F8BD2DE9F0410768B1F5B8
:1054C000001F3DD206460C4611F01F0F3BD1716103
:1054D00085681DB93B78022B00D9BD6A35B93B8977
:1054E000B3EB541F32D9BB6AF3611AE0B7F80A80F4
:1054F0004FEA48280EE029463046FFF773FF05467D
:10550000B0F1FF3F25D0012826D9BB69984226D2A9
:10551000C8EB04044445EED229463846FFF7B8FBF1
:10552000F061B561F369EBB103EB5423F36107F16B
:105530003403C4F30804234433620020BDE8F0813F
:105540000220BDE8F0810220BDE8F0810220BDE824
:10555000F0810120BDE8F0810220BDE8F081022049
:10556000BDE8F0810220BDE8F08100BF2DE9F041E7
:1055700007460668884629B9F5687DB1B3699D423A
:105580000ED20EE0FFF72EFF012846D9B0F1FF3F03
:1055900051D0B36998424ED3454602E0012500E060
:1055A00001252C460134B3699C4202D3012D37D921
:1055B000022421463846FFF715FF38B1012832D0C2
:1055C000B0F1FF3F31D0AC42ECD130E04FF0FF32D0
:1055D00021463046FFF784FE034640B9B8F1000F7C
:1055E00005D0224641463046FFF77AFE034673B99E
:1055F000F4603369B269023A934201D2013B3361EC
:10560000337943F0010333712046BDE8F081012B6B
:1056100010D14FF0FF30BDE8F0810120BDE8F081EE
:105620000020BDE8F081BDE8F081BDE8F0810020F8
:10563000BDE8F0810120BDE8F08100BFF8B50E465D
:10564000046801292CD907461146A3699E4229D234
:105650002AB14FF0FF322046FFF742FE20BB314611
:105660003846FFF7BFFE0546F8B101281FD0B0F15C
:10567000FF3F1ED0002231462046FFF731FED0B951
:105680002369B3F1FF3F05D001332361237943F050
:1056900001032371A3692E469D42E0D30020F8BD8B
:1056A0000220F8BD0220F8BDF8BD0020F8BD0220A0
:1056B000F8BD0120F8BDF8BD2DE9F843066843693F
:1056C00003F12005C369002B6DD0B5F5001F6DD225
:1056D00088460446C5F30807002F5DD10133C36136
:1056E000816941B93389B3EB551F55D80023C36194
:1056F0000420BDE8F8837389013B13EA55234BD19D
:10570000FFF770FE8146012853D9B0F1FF3F53D017
:10571000B369984239D3B8F1000F04D10023E36193
:105720000420BDE8F883A1692046FFF71FFF8146EA
:10573000002844D0012845D0B0F1FF3F45D0304685
:10574000FFF7DCFB002843D14FF40072002106F183
:105750003400FFF7B1F949463046FFF799FA306354
:105760004FF000080AE00123F3703046FFF7C6FB54
:1057700088BB08F10108336B0133336373899845A3
:10578000F1D3336BC8EB03033363C4F81890494675
:105790003046FFF77DFAE061656134363E442662AB
:1057A0000020BDE8F8830420BDE8F8830420BDE8AC
:1057B000F8830220BDE8F8830120BDE8F8830720C4
:1057C000BDE8F8830220BDE8F8830120BDE8F88336
:1057D0000120BDE8F8830120BDE8F88370B50446D8
:1057E00006680021FFF768FEE8B9E1693046FFF777
:1057F000AFFB0546C0B9206A0378B3B1C37A03F0A2
:105800003F03A371C37A13F0080F05D10B2204F1F3
:105810002401FFF757F950B100212046FFF74CFF54
:105820000028E2D070BD70BD70BD042070BD284658
:1058300070BD00BF70B582B004460191056891F952
:1058400000302F2B06D05C2B04D06B6983600AE0FC
:1058500001330193019B93F900202F2AF8D05C2A91
:10586000F6D00023A360019B1B781F2B08D8802350
:1058700084F82F3000212046FFF71EFE064635E053
:1058800001A92046FFF734FA064678BB2046FFF709
:10589000A5FF94F82F3080B1042820D113F0200FF9
:1058A00006D013F0040FEBD0802384F82F301DE0D6
:1058B00013F0040F15D0064618E013F0040F12D1B0
:1058C000A37913F0100F10D005F134016369C3F30D
:1058D000080319442846FFF7E7F9A060D0E7064619
:1058E00004E0052602E0064600E00526304602B048
:1058F00070BD00BFF8B504460F4606680021FFF7EB
:10590000DBFD0246B8B90025E1693046FFF720FB10
:10591000024680B9236A1B78E52B00D01BB90135FC
:10592000BD4201D107E0002501212046FFF7C4FE5A
:1059300002460028E8D0042A00D107221046F8BD0C
:1059400070B5044606680121FFF7D4FF054690B9FB
:10595000E1693046FFF7FCFA054660B920220021D4
:10596000206AFFF7A9F80B2204F12401206AFFF74F
:1059700099F80123F370284670BD00BF70B5044646
:10598000FFF7BCFA0546002837D12378032B2DD129
:105990002379012B2AD104F134064FF4007200213F
:1059A0003046FFF789F84AF6552104F23220FFF716
:1059B0006BF813493046FFF76BF8124904F506708F
:1059C000FFF766F8216904F50770FFF761F8E168F1
:1059D00004F50870FFF75CF8226A013222630123A4
:1059E00031466078FEF756FE0023237100221146EF
:1059F0006078FEF767FE00B10125284670BD00BF44
:105A0000525261417272416170B584B0019000914F
:105A1000164604A840F8041DFFF7FCF9041E19DB24
:105A2000104B53F8245025B12846FFF71FF90023E7
:105A30002B70019B0BB100221A70019B094A42F89E
:105A400024304BB1012E09D1002201A96846FFF78D
:105A5000D7FA04E00B2002E0002000E0002004B0B0
:105A600070BD00BFA00400202DE9F04391B001916A
:105A7000002800F0FC800546164602F03F073A4633
:105A800002A901A8FFF7BCFA0446002840F0EA800A
:105A9000029B0393019903A8FFF7CCFE044670B95B
:105AA0009DF93B30002B09DB37F0010314BF0121C6
:105AB000002103A8FFF720F8044600E0062416F0B2
:105AC0001C0F5AD06CB1042C08D1FFF74FF820B14D
:105AD00003A8FFF735FF044600E0122447F008074B
