:020000040800F2
:1000000000000220B9020008C1020008C502000871
:10001000390300083D0300088503000800000000C4
:10002000000000000000000000000000CD030008F8
:10003000D103000800000000D5030008E12E0008ED
:10004000E9030008E9030008E9030008D52D0008CA
:10005000E9030008E9030008E9030008E9030008D0
:10006000E9030008E9030008E9030008E9030008C0
:10007000E9030008E9030008E9030008E9030008B0
:10008000E9030008E9030008E9030008E9030008A0
:10009000E9030008E9030008E9030008E903000890
:1000A000E9030008E9030008E9030008E903000880
:1000B000E9030008E9030008E9030008E903000870
:1000C000E9030008E9030008E9030008E903000860
:1000D000E9030008E9030008E9030008E903000850
:1000E000E9030008092E0008E9030008E9030008F5
:1000F000E9030008E9030008E9030008E903000830
:10010000E903000891260008E9030008E903000854
:10011000E9030008E90300081D230008E9030008BB
:10012000E9030008E9030008E90300087126000854
:10013000E9030008E9030008E9030008E9030008EF
:10014000E9030008E9030008E9030008E9030008DF
:10015000E903000881260008E9030008E903000814
:10016000E9030008E9030008E9030008E9030008BF
:10017000E9030008E9030008E903000800000000A3
:10018000E9030008E903000800B583B002F06CF948
:10019000384B394A1360394A136039490CE00A6810
:1001A0004B6801F10C04886803E01168196004339E
:1001B00004329842F9D82146324B9942EFD32E4B64
:1001C0001A68314B9A4204D12C4B1A682F4B9A4231
:1001D00000D0FEE7274B2E4A13602E4A13602E4BA9
:1001E0000AE0194651F8082B5B6802E00020106015
:1001F00004329A42FAD30B46284A9342F1D3244B55
:100200001B6813B9234B1B6803B1FEE702F0BCFE69
:10021000694601A802F0B8F8214C224B1C1BA4101F
:10022000002504E01E4B53F8253098470135AC42B9
:10023000F8DC1D4C1D4B1C1BA410002504E01A4BC0
:1002400053F8253098470135AC42F8DC0099019805
:1002500002F0A2FE0546164C164B1C1BA41004E02F
:10026000013C134B53F824309847002CF8DC284607
:1002700002F05CF8BABADECA00000020400100209B
:10028000EC030008040400087856341232547698BF
:1002900044010020F00700200404000814040008B2
:1002A00014040008140400081404000814040008CE
:1002B000140400081404000808B5FFF765FF00BF28
:1002C00000BEFEE71EF0040F0CBFEFF30880EFF353
:1002D00009807146414A10472DE9F04182B0044639
:1002E0008846134B5E6B9F6B9D6A1B6B13F0020F6E
:1002F0000DD00F4BDB6A002B09DA4BF6AB6102F035
:1003000037F920B14FF00042094BDA620CE009489E
:1003100002F04CF8CDF800803B4632462946204694
:1003200002F0AEF800BEFEE702B0BDE8F08100BF0B
:1003300000ED00E0D840000800BEFEE71EF0040F0C
:100340000CBFEFF30880EFF309807146244A104791
:100350002DE9F04182B004468846084B5E6B9F6BE6
:100360009D6A074802F022F8CDF800803B463246ED
:100370002946204602F084F800BEFEE700ED00E0CA
:10038000E84000081EF0040F0CBFEFF30880EFF305
:1003900009807146134A10472DE9F04182B00446A6
:1003A0008846084B5E6B9F6B9D6A074801F0FEFF15
:1003B000CDF800803B4632462946204602F060F8E0
:1003C00000BEFEE700ED00E0F440000800BEFEE7DE
:1003D00000BEFEE700BEFEE770470000D90200083D
:0C03E000510300089903000800BEFEE76E
:1003EC00BC4100080000002044010020BC41000872
:1003FC00000000100000001044010020F407002051
:08040C000000001000000010C8
:1004200008B50B4B1A6842F400721A601A6842F45D
:1004300080621A601A6842F480721A60032000F029
:1004400009F80F2001F022FF02F02AF9002008BD70
:10045000003C024010B50446C31E042B03D9A4215E
:10046000094801F099FF094AD36823F4E0631B04AB
:100470001B0C240204F4E064234343F0BF6343F401
:100480000033D36010BD00BF0C3E000800ED00E05B
:1004900070B504460E4615460F2A03D9BC211A48EA
:1004A00001F07AFF0F2E03D9BD21174801F074FF28
:1004B000164BDA68C2F30222C2F10701042928BFF1
:1004C0000421131D062B01D9033A00E00022012369
:1004D00003FA01F101393140914003FA02F2013A85
:1004E0002A400A43002C06DA04F00F041201D2B2AB
:1004F000074B1A5570BD1201D2B204F1604404F5E5
:10050000614484F8002370BD0C3E000800ED00E05B
:1005100014ED00E010B5041E03DAD021064801F006
:100520003BFF620904F01F04012303FA04F4034BA8
:1005300043F8224010BD00BF0C3E000800E100E07F
:100540000138B0F1807F0AD2064B5860F021064A8C
:1005500082F823100020986007221A60704701205B
:10056000704700BF10E000E000ED00E010B5044669
:10057000042805D020B140F2B311084801F00CFF67
:10058000042C05D1064A136843F00403136010BD20
:10059000034A136823F00403136010BD0C3E0008E7
:1005A00010E000E038B50446056D2A68416D082367
:1005B0008B401A4219D003681A6812F0040F14D045
:1005C0001A6822F004021A60426D08239340AB605F
:1005D000C36C43F00103C364042380F83530002367
:1005E00080F83430836C03B198472A68616D584BAA
:1005F0008B401A421AD023685A6912F0800F15D026
:100600005A6922F080025A61626D514B9340AB608F
:10061000E36C43F00203E364042384F835300023E1
:1006200084F83430A36C0BB1204698472A68616D7A
:10063000484B8B401A421AD023681A6812F0020FF6
:1006400015D01A6822F002021A60626D414B934085
:10065000AB60E36C43F00403E364042384F83530B7
:10066000002384F83430A36C0BB1204698472A68E5
:10067000616D10238B401A422DD02268116811F051
:10068000080F28D0116811F4802F11D0AB602368B7
:100690001A6812F4002F03D1312384F8353016E0A4
:1006A0001B6813F4002F12D0412384F835300EE07C
:1006B000136813F4807F03D1136823F008031360D9
:1006C000626D10239340AB60312384F83530236C86
:1006D0000BB1204698472A68616D20238B401A424F
:1006E00034D02268116811F0100F2FD0116811F466
:1006F000802F13D0AB6023681A6812F4002F04D146
:10070000636C1BB32046984738BD1B6813F4002F59
:100710001CD0E36BD3B12046984738BD136813F45F
:10072000807F03D1136823F010031360626D2023D0
:100730009340AB60E36CE364112384F8353000230D
:1007400084F83430E36B0BB12046984738BD00BFC6
:1007500001008000040080002DE9F04782B080464F
:100760000F46A44B984223D003F5806398421FD0D4
:1007700003F5806398421BD003F58063984217D03D
:1007800003F58063984213D003F5806398420FD03D
:1007900003F5806398420BD003F58063984207D03D
:1007A00003F58063984203D0C521934801F0F4FD1E
:1007B0003B881BB9C621904801F0EEFD7B68012BF8
:1007C00022D9112B20D0022B1ED0122B1CD08B4AE9
:1007D000934219D002F58012934215D002F580128F
:1007E000934211D0A2F5F81293420DD002F5801277
:1007F000934209D002F58012934205D0032B03D017
:10080000C7217D4801F0C8FDBB68022B03D9C82170
:10081000794801F0C1FD00252CE10124AC403E687F
:100820002640B44240F025817B68022B01D0122B78
:100830004AD13B69C3B3092B36D0ABB3A3B39BB347
:1008400093B3012B30D02FD0022B2DD02CD02BD016
:10085000032B29D0042B27D026D025D0052B23D03D
:1008600022D0092B20D0062B1ED0092B1CD0072B01
:100870001AD019D018D0082B16D015D014D0092BA7
:1008800012D011D00A2B0FD00ED00B2B0CD00C2B6A
:100890000AD009D00D2B07D00C2B05D00F2B03D07D
:1008A000D921554801F078FDEA08083258F82200AD
:1008B00005F0070399000F238B4020EA03003B69F2
:1008C0008B40034348F82230D8F800304FEA450AFD
:1008D0004FF0030909FA0AF96FEA090903EA090264
:1008E0007B6803F0030303FA0AF31343C8F80030EC
:1008F0007B685A1E012A03D9112B01D0122B1BD160
:10090000FB68032B03D9EC213B4801F045FDD8F8E7
:10091000083009EA0302FB6803FA0AF31343C8F834
:100920000830D8F8043023EA04047B68C3F30013CA
:10093000AB401C43C8F80440D8F80C3009EA03095E
:10094000BB6803FA0AF349EA0303C8F80C307B6872
:1009500013F0805F00F08D8000230193284B5A6CC8
:1009600042F480425A645B6C03F480430193019B20
:10097000A9088A1C234B53F8220005F003039B00AF
:100980000F229A4020EA02001A4A904521D002F52F
:10099000806290451FD002F5806290451DD002F51F
:1009A000806290451BD002F58062904519D002F517
:1009B0008062904517D002F58062904515D002F50F
:1009C0008062904513D002F5806290451CD10822C8
:1009D0001BE0002219E0012217E0022215E00322A9
:1009E00013E0042211E005220FE006220DE00722A9
:1009F0000BE000BF00000240403E00080000111064
:100A00000038024000380140092202FA03F3034390
:100A100002311B4A42F821301A4B1A68F34302EAAA
:100A20000301786810F4803F01D046EA0201154ABC
:100A30001160526803EA0201786810F4003F01D0A7
:100A400046EA02010F4A5160926803EA020178689F
:100A500010F4801F01D046EA02010A4A9160D26870
:100A60001340796811F4001F01D046EA0203054AD9
:100A7000D36001350F2D7FF6D0AE02B0BDE8F08710
:100A800000380140003C014070B5064615460C4652
:100A900021B940F2B111084801F07EFC012D04D9C2
:100AA0004FF4D971044801F077FC0DB1B46170BD09
:100AB0002404B46170BD00BF403E000803685A6959
:100AC00012F4806F0DD06FF480625A6104230364C6
:100AD00000230363202280F83D2080F83C30012071
:100AE00070470020704700BF2DE9F04106460C46D4
:100AF00090461D4601F01AFE0746B8F1000F13D0CC
:100B00003FE0B5F1FF3F0FD025B101F00FFEC01B54
:100B1000854209D200233363202286F83D2086F8DF
:100B20003C300320BDE8F081C4F30743012B08D11A
:100B300033685B6924EA03039BB2003318BF0123C7
:100B400007E033689B6924EA03039BB2003318BFB4
:100B50000123002BD5D10020BDE8F081B5F1FF3F86
:100B60000FD025B101F0E2FDC01B854209D2002360
:100B70003363202286F83D2086F83C300320BDE810
:100B8000F081C4F30743012B08D133685B6924EA81
:100B900003039BB2B3FA83F35B0907E033689B69F5
:100BA00024EA03039BB2B3FA83F35B09002BD5D18C
:100BB0000020BDE8F08100BFF8B504460D4616469A
:100BC00001F0B4FD074629E023685A6912F4806FEA
:100BD00012D01A6842F400721A6023686FF48062BF
:100BE0005A610423236400232363202284F83D20D8
:100BF00084F83C300120F8BDB6F1FF3F0ED026B19D
:100C000001F094FDC01B864208D2002323632022FA
:100C100084F83D2084F83C300320F8BDC5F3074339
:100C2000012B08D123685B6925EA03039BB20033DB
:100C300018BF012307E023689B6925EA03039BB2E1
:100C4000003318BF0123002BBED10020F8BD00BF28
:100C500070B504460E461546C36A042B06D0C36A17
:100C6000012B03D0C36A13F5803F05D122681368B6
:100C700043F48073136007E0036B122B04D1026806
:100C8000136843F4807313602B4600224FF0011168
:100C90002046FFF729FF48BB2369B3F5804F04D1F5
:100CA000236806F0FE061E6114E02268F31103F0CB
:100CB000060343F0F00313612A4610492046FFF76C
:100CC0007BFF20B1236C042B12D1012313E0236896
:100CD000F6B21E612A460A492046FFF76DFF034619
:100CE00048B1236C042B05D1012304E0032302E067
:100CF000032300E00323184670BD00BF0800010075
:100D000002000100F0B583B004460E461546C36AE2
:100D1000042B06D0C36A012B03D0C36A13F5803FAE
:100D20000AD12268136843F4806313602268136851
:100D300043F4807313600CE0036B112B09D102683C
:100D4000136843F4806313600268136843F480738C
:100D500013602B4600224FF001112046FFF7C4FE1E
:100D600000284CD12369B3F5804F05D1236846F0A4
:100D70000106F6B21E6136E02368F71107F0060798
:100D800047F0F0021A612A4623492046FFF714FF74
:100D900020B1236C042B34D1012339E02368F6B24F
:100DA0001E612A461D492046FFF706FF20B1236C2D
:100DB000042B28D101232BE00022019223685969DA
:100DC0000191996901910199196841F48071196043
:100DD0002B464FF001112046FFF786FEA8B9236885
:100DE00047F0F1071F612A460C492046FFF7E4FE51
:100DF000034668B1236C042B09D1012308E00323C7
:100E000006E0032304E0032302E0032300E00323BE
:100E1000184603B0F0BD00BF080001000200010049
:100E200070B504460D4601F081FC064619E02046E7
:100E3000FFF744FEE0B9B5F1FF3F12D025B101F054
:100E400075FC801B85420CD2236C43F02003236485
:100E500000232363202284F83D2084F83C300320C3
:100E600070BD23685B6913F0800FE0D0002070BD77
:100E7000012070BD70B504460D4601F057FC0646D2
:100E800019E02046FFF71AFEE0B9B5F1FF3F12D096
:100E900025B101F04BFC801B85420CD2236C43F042
:100EA0002003236400232363202284F83D2084F858
:100EB0003C30032070BD23685B6913F0040FE0D061
:100EC000002070BD012070BD70B505460C4601F0D4
:100ED0002DFC064622E05A6912F0100F0CD06FF07C
:100EE00010025A6100232B642B63202285F83D20D9
:100EF00085F83C30012070BD24B101F017FC801B47
:100F000084420BD22B6C43F020032B64202385F802
:100F10003D30002385F83C30032070BD2B685A69B2
:100F200012F0400FD7D0002070BD00BF704700BF47
:100F3000002800F0E38038B504460368704A934205
:100F40000CD002F58062934208D002F58062934291
:100F500004D04FF4B1716B4801F01EFA6368013B95
:100F6000694A934204D940F26311664801F014FAC9
:100F7000A3683BB1B3F5804F04D04FF4B271614820
:100F800001F00AFAE36823F47F7323F0030323B12B
:100F900040F265115B4801F0FFF92369B3F5804F1A
:100FA00007D0B3F5404F04D04FF4B371554801F06A
:100FB000F3F96369012B04D940F26711514801F03C
:100FC000EBF9A36933F0FE0304D04FF4B4714D483C
:100FD00001F0E2F9E36933B1402B04D040F269112A
:100FE000484801F0D9F9236A33B1802B04D04FF47B
:100FF000B571444801F0D0F994F83D3013F0FF0F7B
:1010000005D1002384F83C302046FFF78FFF2423CE
:1010100084F83D302268136823F00103136000F068
:1010200091FE3A4BA3FB00239B0C2268536021687E
:101030006568374A954201D8013308E04FF496724B
:1010400002FB03F3334AA2FB03239B0901330B6228
:10105000216863682E4A934208D85B00B0FBF3F026
:10106000C0F30B03032B2BD8042029E0A5684DB94E
:1010700003EB4302B0FBF2F2C2F30B02B2FA82F2CC
:1010800052090AE003EB830202EB8202B0FBF2F2A8
:10109000C2F30B02B2FA82F2520982B935B903EBFC
:1010A0004303B0FBF3F040F4004009E003EB83039B
:1010B00003EB8303B0FBF3F040F4404000E0012079
:1010C000C8612268E169236A0B43136022682169C1
:1010D000E3680B43936022686169A3690B43D360A3
:1010E0002268136843F0010313600020206420236A
:1010F00084F83D30206384F83E0038BD01207047FD
:1011000000540040703E00087F1A060083DE1B4337
:10111000A0860100D34D6210F0B583B01E4690F852
:101120003D30DBB2202B40F0848004460D4617464C
:1011300042F2107301224549FFF7D6FC00287AD10C
:1011400094F83C30012B78D0012384F83C3022689D
:10115000136823F400631360212384F83D301023C7
:1011600084F83E3000232364A3F58033E362089AB9
:1011700029462046FFF76CFD054660B1236C042B21
:1011800004D1002384F83C3001255BE0002384F87F
:101190003C30032556E00023019323685A690192ED
:1011A0009B690193019B34E008992046FFF738FEC4
:1011B00048B1236C042B42D12268136843F40073B6
:1011C000136001253EE02368781C3A781A61731E8B
:1011D0009BB22268516911F0040F06D043B17B78AD
:1011E0001361023EB6B2023704E01E46074601E034
:1011F0001E46074608992046FFF73CFE48B1236C7F
:10120000042B1ED12268136843F400731360012578
:1012100018E0002EC8D12268136843F400731360ED
:10122000202384F83D30002384F83E3084F83C309D
:1012300008E0022506E0022504E0022502E003257D
:1012400000E00325284603B0F0BD00BF02001000F7
:10125000F0B585B01E4690F83D30DBB2202B40F053
:10126000FC8004460D46174642F210730122844961
:10127000FFF73AFC002840F0F28094F83C30012B54
:1012800000F0EF80012384F83C302268136823F4D7
:1012900000631360222384F83D30102384F83E302D
:1012A00000232364A3F58033E3620A9A294620468B
:1012B000FFF728FD054660B1236C042B04D1002301
:1012C00084F83C300125D7E0002384F83C30032526
:1012D000D2E066B90023009323685A6900929A69A4
:1012E0000092009A1A6842F400721A60AAE0012E75
:1012F00011D12268136823F48063136000230193E3
:1013000023685A6901929A690192019A1A6842F413
:1013100000721A6096E0022E12D12268136823F43C
:10132000806313602268136843F400631360002332
:10133000029323685A6902929B690293029B81E09F
:101340002268136843F480631360002303932368C7
:101350005A6903929B690393039B73E0032E54D84D
:10136000012E10D10A992046FFF7AEFD20B1236C63
:10137000202B78D103257FE023681B693B70013E59
:10138000B6B201375EE0022E18D10A9B00223D4919
:101390002046FFF7A9FB002867D12268136843F4B1
:1013A0000073136023681A693B4603F8022B226816
:1013B00012697A70023EB6B21F4643E00A9B0022D1
:1013C00030492046FFF790FB002850D1226813686F
:1013D00023F48063136023681B693B700A9B00221F
:1013E00028492046FFF780FB002842D12268136875
:1013F00043F40073136023681B697B7023681B69C7
:10140000BB70033EB6B203371CE00A992046FFF7D3
:101410005BFD20B1236C202B2DD103252CE0781C03
:1014200023681B693B70731E9BB22268516911F0DF
:10143000040F05D013697B70023EB6B2023701E09B
:101440001E460746002E89D1202384F83D30002314
:1014500084F83E3084F83C300EE002250CE0022592
:101460000AE0022508E0012506E0032504E0032543
:1014700002E0032500E00125284605B0F0BD00BFCD
:1014800002001000040001002DE9F04782B090F83E
:101490003D50EDB2202D40F09D801E4690460F46F7
:1014A000044642F2107301225249FFF71DFB002847
:1014B00040F0928094F83C30012B00F08F804FF088
:1014C000010A84F83CA02268136823F400631360C7
:1014D000242384F83D3000232364A3F58033E362A2
:1014E00000E09A462268136843F480731360334621
:1014F00000224FF001112046FFF7F6FA00286FD1C5
:10150000236807F0FE021A6101F010F98146236892
:101510005869C0F340005D69C5F3802594F83D30FB
:10152000DBB213E02EB101F001F9C9EB00008642F5
:1015300002D2A02384F83D3023685869C0F34000EC
:101540005D69C5F3802594F83D30DBB210B90DB963
:10155000A02BE7D1202384F83D3023685A6912F08C
:10156000020F1BD01A6842F400721A600023019324
:1015700023685A6901929B690193019B42F210739F
:1015800001221C492046FFF7AFFA034650BB202238
:1015900084F83D20002284F83C2026E01A6842F4BA
:1015A00000721A6023686FF480625A6142F210730D
:1015B000012210492046FFF797FAA8B90AF1010362
:1015C000C2458ED3202384F83D30002384F83C307C
:1015D00001230AE0022308E0022306E0022304E0DC
:1015E000032302E0032300E00323184602B0BDE812
:1015F000F08700BF02001000006C704730B583B068
:10160000044603680F2B03D9F6219C4800F0C4FE62
:10161000236813F0010F45D06368012B05D9052B12
:1016200003D0FB21954800F0B7FE954B9B6803F073
:101630000C03042B0AD0924B9B6803F00C03082B7D
:101640000CD18F4B5B6813F4800F07D08C4B1B6859
:1016500013F4003F26D0636823BBCCE12279894B89
:101660001A7063687BB101F061F8054605E001F08E
:101670005DF8401B642800F2C081814B1B6813F4A5
:10168000003FF4D00EE001F051F8054605E001F00E
:101690004DF8401B642800F2B281794B1B6813F4AB
:1016A000003FF4D1236813F0020F6AD0E368012BE6
:1016B00004D940F22D11714800F06EFE23691F2BF2
:1016C00004D94FF497716D4800F066FE6C4B9B682F
:1016D00013F00C0F0AD06A4B9B6803F00C03082B25
:1016E0001BD1674B5B6813F4800F16D1644B1B68EA
:1016F00013F0020F03D0E368012B40F082816048B1
:10170000036823F0F8012369F82292FAA2F2B2FAF0
:1017100082F293400B43036033E0E368FBB10122A4
:10172000594B1A6001F002F8054605E000F0FEFF93
:10173000401B022800F26781514B1B6813F0020F17
:10174000F4D04F48036823F0F8012369F82292FA95
:10175000A2F2B2FA82F293400B43036011E000223E
:10176000494B1A6000F0E2FF054605E000F0DEFF9D
:10177000401B022800F24981414B1B6813F0020F05
:10178000F4D1236813F0080F2ED06369012B04D91C
:101790004FF4B771394800F0FFFD636993B101223E
:1017A0003A4B1A6000F0C2FF054605E000F0BEFFAC
:1017B000401B022800F22B81314B5B6F13F0020FAC
:1017C000F4D011E00022314B1A6000F0AFFF054663
:1017D00005E000F0ABFF401B022800F21A81284B05
:1017E0005B6F13F0020FF4D1236813F0040F60D085
:1017F000A368012B06D9052B04D04FF4CC711F48E8
:1018000000F0CAFD002301931D4B1A6C42F0805278
:101810001A641B6C03F080530193019B1C4A1368EC
:1018200043F48073136000F081FF054605E000F08B
:101830007DFF401B022800F2EE80154B1B6813F45D
:10184000807FF4D0227A134B1A70A3688BB100F01A
:101850006DFF054607E000F069FF401B41F2883349
:10186000984200F2DA80064B1B6F13F0020FF2D0A1
:101870001FE000F05BFF054616E000BFB03E000829
:10188000003802400238024000004742800E4742C2
:10189000007000407038024000F048FF401B41F2E9
:1018A0008833984200F2BB80634B1B6F13F0020F2A
:1018B000F2D1A369022B04D940F2CD115F4800F0A8
:1018C0006BFDA369002B00F0AC805B4A926802F0CC
:1018D0000C02082A00F0A780022B79D1E3693BB102
:1018E000B3F5800F04D04FF4EB71544800F054FD71
:1018F000236A3F2B04D940F2D711504800F04CFD29
:10190000636A323BB3F5BF7F04D94FF4EC714B48A7
:1019100000F042FDA36A022B0AD0042B08D0062B4C
:1019200006D0082B04D040F2D911444800F034FD11
:10193000E36A043B0B2B04D94FF4ED713F4800F0F0
:101940002BFD00223E4B1A6000F0F0FE054604E03D
:1019500000F0ECFE401B022867D8374B1B6813F0E1
:10196000007FF5D1E169236A1943636A47F6C072C3
:1019700092FAA2F2B2FA82F293401943A36A5B0888
:101980005A1E4FF4403393FAA3F3B3FA83F302FAE7
:1019900003F30B43E26A4FF0706191FAA1F1B1FADF
:1019A00081F18A401343244A53600122244B1A6078
:1019B00000F0BCFE044604E000F0B8FE001B022864
:1019C00035D81D4B1B6813F0007FF5D0002031E0A7
:1019D00000221B4B1A6000F0A9FE044604E000F050
:1019E000A5FE001B022824D8134B1B6813F0007FB0
:1019F000F5D100201EE001201CE003201AE00320A6
:101A000018E0012016E0032014E0032012E0032078
:101A100010E003200EE003200CE003200AE0032086
:101A200008E0002006E0012004E0032002E003209B
:101A300000E0032003B030BD00380240B03E000893
:101A40006000474270B504460D460368013B0E2B0B
:101A500004D94FF40E71834800F09EFC072D04D981
:101A600040F239217F4800F097FC7F4B1B6803F060
:101A70000F039D4208D9EBB27B4A1370136803F041
:101A80000F039D4240F0DB80236813F0020F1DD04E
:101A9000A368A3B1802B12D0902B10D0A02B0ED016
:101AA000B02B0CD0C02B0AD0D02B08D0E02B06D006
:101AB000F02B04D04FF414716A4800F06DFC6B49B0
:101AC0008B6823F0F002A36813438B60236813F044
:101AD000010F64D06368032B04D940F25721614899
:101AE00000F05AFC6268012A05D1604B1B6813F4B0
:101AF000003F0FD1A5E0931E012B05D85B4B1B685F
:101B000013F0007F06D19EE0584B1B6813F0020FC4
:101B100000F09B8055498B6823F0030313438B60CF
:101B200000F004FE06466368012B0FD107E000F0C9
:101B3000FDFD801B41F28833984200F288804B4BB8
:101B40009B6803F00C03042BF1D128E0022B0ED18B
:101B500006E000F0EBFD801B41F28833984278D814
:101B6000424B9B6803F00C03082BF2D117E0032BC8
:101B700010D13E4B9B6800F0D9FD801B41F28833A9
:101B80009842F6D967E000F0D1FD801B41F288331E
:101B9000984262D8354B9B6813F00C0FF3D1324B4F
:101BA0001B6803F00F039D4207D2EAB22E4B1A7056
:101BB0001B6803F00F039D4251D1236813F0040FFB
:101BC00019D0E36883B1B3F5805F0DD0B3F5A05FA2
:101BD0000AD0B3F5C05F07D0B3F5E05F04D040F2A0
:101BE000B521204800F0D8FB20498B6823F4E0524F
:101BF000E36813438B60236813F0080F1AD023693E
:101C000083B1B3F5805F0DD0B3F5A05F0AD0B3F513
:101C1000C05F07D0B3F5E05F04D04FF42F711148D7
:101C200000F0BAFB114A936823F46043216943EA48
:101C3000C10393600F2000F029FB002070BD01203C
:101C400070BD012070BD012070BD012070BD03205A
:101C500070BD032070BD032070BD032070BD012046
:101C600070BD00BFB03E0008003C0240003802409A
:101C7000244B9B6803F00C03042B3FD0082B01D0AE
:101C80002148704710B41F4B586800F03F005B6854
:101C900013F4800F10D01D4BB3FBF0F0194B5A68B2
:101CA00047F6C0710A4091FAA1F3B3FA83F322FA1E
:101CB00003F303FB00F310E0134BB3FBF0F0114B05
:101CC0005A6847F6C07402EA040194FAA4F2B2FA20
:101CD00082F221FA02F202FB00F30A4A506800F491
:101CE00040324FF4403090FAA0F0B0FA80F022FA7F
:101CF00000F001304000B3FBF0F001E00348704712
:101D000010BC7047003802400024F40000127A0032
:101D100008B5FFF7ADFF084B9B6803F0F002F02316
:101D200093FAA3F3B3FA83F322FA03F3034AD35CDF
:101D3000D840034B186008BD00380240A03E0008A0
:101D40000C00002008B5FFF7E3FF084B9B6803F485
:101D5000E0524FF4E05393FAA3F3B3FA83F322FA79
:101D600003F3034AD35CD84008BD00BF00380240EB
:101D7000A03E00080F2303600B4B9A6802F0030299
:101D800042609A6802F0F00282609A6802F4E052BF
:101D9000C2609B68DB0803F4E0530361034B1B68DC
:101DA00003F00F030B60704700380240003C024014
:101DB000704700BF704700BF10B5044603685A6BF8
:101DC00012F4807F09D04FF480729A6301238364F8
:101DD0000023C364FFF7ECFF35E05A6B12F0020FEB
:101DE00005D002229A63C264FFF7E4FF2BE05A6B2E
:101DF00012F0080F06D008229A630423C364FFF789
:101E0000D9FF20E05A6B12F0200F06D020229A63EF
:101E10000623C364FFF7CEFF15E05A6B12F0100FD4
:101E200006D010229A630523C364FFF7C3FF0AE0BC
:101E30005A6B12F4007F06D04FF400729A630723A6
:101E4000C364FFF7B7FF2268D36B23F4434323F047
:101E50003A03D36310BD00BF704700BF10B50446FE
:101E60000368234A934237D0B3F1804F34D0A2F5B0
:101E70007C42934230D002F5806293422CD002F52E
:101E80008062934228D002F58062934224D002F50A
:101E90008062934220D002F5704293421CD002F53A
:101EA0007052934218D002F58062934214D002F52A
:101EB0008062934210D0A2F5983293420CD002F582
:101EC0008062934208D002F58062934204D04FF4BE
:101ED000B271084800F060FA2268D36843F0010349
:101EE000D3602268136843F001031360002010BD23
:101EF00000000140E03E0008704700BF704700BF8F
:101F0000704700BF704700BF10B5044603681A69E8
:101F100012F0020F17D0DA6812F0020F13D06FF030
:101F200002021A610123037603689B6913F0030F11
:101F300002D0FFF7E3FF04E0FFF7DEFF2046FFF7E4
:101F4000DFFF0023237623681A6912F0040F19D0EB
:101F5000DA6812F0040F15D06FF004021A61022340
:101F6000237623689B6913F4407F03D02046FFF754
:101F7000C5FF05E02046FFF7BFFF2046FFF7C0FF83
:101F80000023237623681A6912F0080F19D0DA6843
:101F900012F0080F15D06FF008021A61042323769F
:101FA0002368DB6913F0030F03D02046FFF7A6FF79
:101FB00005E02046FFF7A0FF2046FFF7A1FF002322
:101FC000237623681A6912F0100F19D0DA6812F01C
:101FD000100F15D06FF010021A61082323762368C2
:101FE000DB6913F4407F03D02046FFF787FF05E04D
:101FF0002046FFF781FF2046FFF782FF002323766C
:1020000023681A6912F0010F09D0DA6812F0010F83
:1020100005D06FF001021A61204600F07BF92368B9
:102020001A6912F0800F09D0DA6812F0800F05D01B
:102030006FF080021A61204600F026F923681A69C1
:1020400012F0400F09D0DA6812F0400F05D06FF09F
:1020500040021A612046FFF755FF23681A6912F003
:10206000200F09D0DA6812F0200F05D06FF020029F
:102070001A61204600F006F910BD00BF0368454A0A
:10208000904214D0B0F1804F13D0A2F57C42904220
:1020900011D002F5806290420FD002F5806290422A
:1020A0000DD002F5784290420BD101220AE00122C4
:1020B00008E0012206E0012204E0012202E0012200
:1020C00000E000221AB123F070034A681343314A3A
:1020D00090422CD0B0F1804F2BD0A2F57C429042A0
:1020E00029D002F58062904227D002F580629042AA
:1020F00025D002F57842904223D002F570529042EA
:1021000021D002F5806290421FD002F58062904299
:102110001DD0A2F5983290421BD002F58062904209
:1021200019D002F58062904217D1012216E00122F7
:1021300014E0012212E0012210E001220EE001224F
:102140000CE001220AE0012208E0012206E001225F
:1021500004E0012202E0012200E000221AB123F48F
:102160004073CA68134303608B68C3620B68836261
:10217000084B984205D003F58063984203D10123B0
:1021800002E0012300E000230BB10B69036301238C
:10219000436170470000014000286DD010B504462F
:1021A0000368364A934236D0B3F1804F33D0A2F55C
:1021B0007C4293422FD002F5806293422BD002F5ED
:1021C0008062934227D002F58062934223D002F5C9
:1021D000806293421FD002F5704293421BD002F5F9
:1021E0007052934217D002F58062934213D002F5E9
:1021F000806293420FD0A2F5983293420BD002F541
:102200008062934207D002F58062934203D0D921C5
:102210001B4800F0C1F8A3685BB1102B09D0202B3C
:1022200007D0402B05D0602B03D0DA21144800F0F2
:10223000B3F823694BB1B3F5807F06D0B3F5007FC7
:1022400003D0DB210E4800F0A7F894F8393013F0E2
:10225000FF0F05D1002384F838302046FFF7FCFD3E
:10226000022384F83930211D2068FFF707FF01237E
:1022700084F83930002010BD012070470000014073
:10228000E03E0008704700BF704700BF00B589B04E
:10229000002201463620FEF7FBF83620FEF73AF919
:1022A00000230193174B1A6C42F010021A641B6C46
:1022B00003F010030193019B02A903A8FFF75AFD45
:1022C000069B13B9FFF73EFD02E0FFF73BFD400020
:1022D0000D4BA3FB00239B0C013B0C480C4A0260F6
:1022E00040F2E732C2604360002303618360FFF77E
:1022F00053FF18B90548FFF7B1FD00E0012009B010
:102300005DF804FB0038024083DE1B43940200208A
:102310000010004008B500F0C7F908BD08B5024834
:10232000FFF7F2FD08BD00BF94020020FEE700BFEA
:1023300008B5034800F052F80120FFF7F7FF00BF8F
:10234000103F000808B50D4B1B6813B90C4A0B4B26
:102350001A600A4B1A68C31C23F00303134409498B
:102360008B4206D901F0B8F80C2303604FF0FF3020
:1023700008BD02490B60104608BD00BF480100209F
:10238000F407002000FC012001230360014B0B60D7
:10239000704700BF0400002008B50A460146024805
:1023A00000F004F8FFF7C4FF643F00080FB400B565
:1023B00083B004AB53F8042B01938021064801F04D
:1023C00081F9002803DD0146034800F049F803B015
:1023D0005DF804EB04B070475001002010B50446CE
:1023E00001F03CF90146204600F03AF8012102488C
:1023F00000F036F810BD00BF544000082DE9F0434E
:1024000085B004460F46435613BB04252846214693
:10241000ABBE04461FE03546102E28BF1025002312
:1024200006E014F9011B04AA1A4402F8101C013337
:10243000AB42F6D304AA1344002203F8102CE94659
:102440004FF0040840464946ABBE8046761B00E08C
:102450000E46002EDFD1384605B0BDE8F08300BF40
:1024600008B5FFF7CBFF08BD08B500F091F8024BA7
:10247000024A9A6008BD00BF00ED00E000000008BD
:10248000F8B504460D4617461E462648FFF78EFF50
:1024900021682548FFF78AFF61682448FFF786FF17
:1024A000A1682348FFF782FFE1682248FFF77EFF1B
:1024B00021692148FFF77AFF61692048FFF776FF1D
:1024C000A1691F48FFF772FFE1691E48FFF76EFF21
:1024D0001D48FFF76BFF29461C48FFF767FF1C4CA0
:1024E000E16A1C48FFF762FF216B1B48FFF75EFFA4
:1024F000E16B1A48FFF75AFF15F0800F03D03946F9
:102500001748FFF753FF15F4004F03D03146154825
:10251000FFF74CFF1448FFF749FF06991348FFF7F0
:1025200045FFF8BDBC3F0008CC3F0008DC3F000879
:10253000EC3F0008FC3F00080C4000081C4000086D
:102540002C4000083C4000084C400008584000085F
:1025500000ED00E06840000878400008884000086E
:1025600098400008A8400008B8400008C040000893
:1025700083691A888A4207D10268033A012A05D87A
:1025800002338361012070470020704700207047AC
:102590000C4B1A6842F001021A60002199601A6817
:1025A00022F0847222F480321A60074A5A601A6854
:1025B00022F480221A60D9604FF00062034B9A60C7
:1025C000704700BF003802401030002400ED00E0EA
:1025D000224B9B6803F00C03042B07D0082B09D077
:1025E000002B2DD11E4A1F4B1A602CE01E4A1D4B9A
:1025F0001A6028E0194B5A685B6803F03F0312F435
:10260000800F09D0184AB2FBF3F2144B5B68C3F396
:10261000881303FB02F208E0114AB2FBF3F30F4AFE
:102620005168C1F3881101FB03F20C4B5B68C3F3E3
:10263000014301335B00B2FBF3F30A4A136002E08B
:10264000074A084B1A60054B9B68C3F30313074AFC
:10265000D15C044A1368CB401360704700380240D5
:102660000024F4000C00002000127A00044100084D
:1026700008B5024B986DFDF795FF08BDD00100200D
:1026800008B5024BD86DFDF78DFF08BDD0010020C5
:1026900008B50248FFF790FB08BD00BFD00100203D
:1026A000704700BF704700BF38B51D4A136801333B
:1026B00013601C4B1B681BB11A4A1368013B136063
:1026C000002426E02546184B03EB84035B68F3B136
:1026D0001A7812F0020F1AD09A680AB1013A9A6079
:1026E000114B03EB85035868836883B9C36801699C
:1026F00098470D4B03EB85056B685A689A601A780A
:1027000012F0010F03D11A786FF341021A700134ED
:10271000E4B2054B1B789C42D4D3FFF7C3FF38BD0E
:10272000480200204C02002030020020014B1868B3
:10273000704700BF4802002000F13F4000F57E00D6
:10274000C0F38F20704700BF08B5FFF7F5FF0123E6
:1027500003FA00F0024A136B1843106308BD00BF70
:10276000003802402DE9F84F04460D4616469946BA
:102770009DF828709DF82C80FFF7DEFFC0B2002383
:1027800046E045FA03F212F0010F3FD04FF0010E80
:102790000EFA03FE204931F810204EEA020221F819
:1027A0001020D4F80CC0590003228A40D24302EA18
:1027B0000C0B07FA01FC4BEA0C0CC4F80CC0D4F863
:1027C00000C00CEA020B06FA01FC4BEA0C0CC4F840
:1027D00000C006F1FF3C5FFA8CFCBCF1010F15D87C
:1027E000D4F804C01FFA8EFE2CEA0E0E09FA03FA82
:1027F0001FFA8AFA4AEA0E0AC4F804A0D4F808E0DC
:1028000002EA0E0208FA01F10A43A2600133DBB2C8
:102810000F2BB6D9BDE8F88F500200202DE9F04704
:1028200082B09DF82C8051B30F469A4691460646D9
:10283000FFF78AFF002415E047FA04F313F0010FB5
:102840000FD0E108083156F8212004F00705AD004B
:102850000F23AB4022EA030308FA05F51D4346F8AF
:10286000215001340F2CE7D99DF828300193CDF881
:1028700000A04B46022239463046FFF773FF02B0F4
:10288000BDE8F08700238361C3604FF4804202619A
:102890004361C3610362416083607047094B9842A2
:1028A00009D003F58063984207D003F5806398420E
:1028B00005D1054870470548704705487047002016
:1028C000704700BF005400405400002098000020D2
:1028D00010000020F0B585B00C461F4604AD05F889
:1028E000012DFFF7DBFF0646A4B24FF47A73009385
:1028F00001232A462146FEF70FFC20B13046FEF7A1
:102900007BFE01200FE04FF47A73009301233A46D7
:1029100021463046FEF79CFC20B13046FEF76CFEA7
:10292000012000E0002005B0F0BD00BFF0B585B08B
:102930000C461F4604AD05F8012DFFF7AFFF064614
:10294000A4B24FF47A73009301232A462146FEF77E
:10295000E3FB20B13046FEF74FFE012010E04FF4BC
:102960007A730093BDF828303A4621463046FEF788
:102970006FFC20B13046FEF73FFE012000E0002052
:1029800005B0F0BDF0B585B00C4616461D46FFF704
:1029900085FF07468DF80C608DF80D504FF47A7363
:1029A0000093022303AA2146FEF7B6FB20B1384666
:1029B000FEF722FE012000E0002005B0F0BD00BFC0
:1029C00010B50C46FFF76AFF052302222146FEF7E9
:1029D0005BFD08B1012010BD002010BD704700BF95
:1029E00010B582B0044658B9042301930122009225
:1029F0001346C02100F1804000F50130FFF70EFFC3
:102A0000012C09D1042301930122009213464FF4B3
:102A100040710B48FFF702FF022C09D104230193F8
:102A20000122009213464FF410710548FFF7F6FE9D
:102A3000042C03D104210348FFF7D0FF02B010BDDE
:102A4000000402400054004010B582B0044660B952
:102A5000042301930122009213464FF4406100F1D8
:102A6000804000F50130FFF7D9FE012C08D1042386
:102A7000019301220092134603210B48FFF7CEFE7B
:102A8000022C08D104230193012200921346302125
:102A90000648FFF7C3FE042C03D104210448FFF7C6
:102AA0009DFF02B010BD00BF00140240001C024098
:102AB0000058004070B582B0044698B904260196CB
:102AC000012500952B462A464FF480710F48FFF7E9
:102AD000A5FE019600952B462A464FF400710C483E
:102AE000FFF79CFE012C09D10423019301220092DF
:102AF00013464FF4C0710748FFF790FE042C03D132
:102B000004210548FFF76AFF02B070BD00000240D3
:102B100000080240001C0240005C0040F0B585B097
:102B200004460F461646FFF7B9FE05460460204BE3
:102B30009C420ED1002301931E4B1A6C42F40012EA
:102B40001A641B6C03F400130193019B3846FFF7D2
:102B500047FF194B9C420ED100230293154B1A6C70
:102B600042F480021A641B6C03F480030293029BFC
:102B70003846FFF769FF114B9C420ED100230393A7
:102B80000C4B1A6C42F400021A641B6C03F4000331
:102B90000393039B3846FFF78DFF31462846FFF726
:102BA00071FE2846FEF7C4F9002005B0F0BD00BF55
:102BB000005400400038024000580040005C0040D3
:102BC00070B582B005460C46144E0DF107031B226A
:102BD00001783046FFF77EFE9DF8073023F018039A
:102BE00043EAC403DBB28DF807301B222978304654
:102BF000FFF7C8FE032C0ED8DFE804F00205080B2F
:102C0000074B6B6007E0074B6B6004E0064B6B60A3
:102C100001E0064B6B60002002B070BD0054004024
:102C20002D23FA3B2D237A3C90C1F93C90C1793D8C
:102C300070B582B005460C46164E0DF107031C22F6
:102C400001783046FFF746FE9DF8073023F0180361
:102C500043EAC403DBB28DF807301C2229783046E2
:102C6000FFF790FE032C12D8DFE804F002060A0EEC
:102C70004FF06253AB600AE04FF06453AB6006E084
:102C80004FF06653AB6002E04FF06853AB6000203A
:102C900002B070BD0054004008B50B4619220178FF
:102CA0000348FFF76FFE08B1012008BD002008BDF2
:102CB00000540040F0B583B0044617461E4661F04C
:102CC0002F010170174D184A01212846FFF726FFF2
:102CD00021782846FFF774FEF0B90DF1070375223D
:102CE00021782846FFF7F6FD9DF80730682B15D1AF
:102CF00000236B2221782846FFF744FE0721204657
:102D0000FFF7CAFF39462046FFF792FF31462046BB
:102D1000FFF756FF002002E0022000E0032003B08E
:102D2000F0BD00BF00540040801A060010B586B008
:102D3000044601780E23009302AB3B221F48FFF7A5
:102D4000F5FD9DF808209DF8093043EA0223A38190
:102D50009DF80A209DF80B3043EA0223E3819DF899
:102D60000C209DF80D3043EA022323829DF80E00CB
:102D70009DF80F3043EA002000B200F009FA104934
:102D800000F00EFB0F4900F04FF9A0619DF81020F4
:102D90009DF8113043EA022363829DF812209DF8CA
:102DA000133043EA0223A3829DF814209DF81530C6
:102DB00043EA0223E382002006B010BD0054004025
:102DC0000000AA43B81E1242704700BF704700BF00
:102DD000704700BF08B50A4B1B68DB6813F4806FAF
:102DE00008D0FFF7F1FF064B1A68D368DBB263F433
:102DF0009063D3604FF48002024B5A6108BD00BF5C
:102E00006C020020003C014008B50F4B1B68DA68DB
:102E100012F4807F06D0DA68D2B262F4C072DA604F
:102E2000FFF7D4FF084B1B68DA6812F4007F06D066
:102E3000DA68D2B262F42072DA60FFF7C9FF4FF4A9
:102E40000032024B5A6108BD6C020020003C014078
:102E500070B586B00C4A136B43F0040313634FF450
:102E60000056019601240294022304930394074D13
:102E700001A92846FDF770FC224631462846FDF799
:102E800003FE06B070BD00BF0038024000080240DB
:102E90000A4B1B680A4AA2FB03239B09013BB3F1BF
:102EA000807F09D2074A5360F021074B83F8231033
:102EB0000023936007231360704700BF0C000020BD
:102EC000D34D621010E000E000ED00E0034B1B6802
:102ED0001BB1024A1368013B13607047D402002003
:102EE00008B5FFF7E1FBFFF7F1FF08BD30B595B07E
:102EF00000240194214B1A6C42F080521A641B6C1E
:102F000003F080530193019B02941D4B1A6842F415
:102F100080421A601B6803F480430293029B0123E2
:102F2000089309934FF480030F93082310934FF4F1
:102F3000A873119302251295072313930E9508A8E1
:102F4000FEF75CFB0F230393049505944FF4A05305
:102F500006934FF480530793052103A8FEF772FDF3
:102F6000FEF7D6FE074BA3FB00308009FDF7E8FA19
:102F70000420FDF7FBFA15B030BD00BF0038024059
:102F800000700040D34D621008B5FDF749FAFFF715
:102F9000ADFFFFF71DFB08BD30B585B01948FFF741
:102FA0001DFA194B19681948FFF700FAFFF770FF6F
:102FB000FFF74EFF16486923037000231A4619468F
:102FC000FFF778FE044601461248FFF7EFF9B4B95F
:102FD0000F4C2046FFF7AAFEB4F90C10B4F90E20EE
:102FE000B4F91030B4F91200B4F91450B4F9164021
:102FF0000294019500900848FFF7D8F9E8E705B07A
:1030000030BD00BF144100080C000020284100081A
:1030100054030020404100084441000880F0004073
:1030200002E000BF81F0004142001FBF5FEA4103A0
:1030300092EA030F7FEA226C7FEA236C6AD04FEAA0
:103040001262D2EB1363C1BFD218414048404140E5
:10305000B8BF5B42192B88BF704710F0004F40F497
:10306000000020F07F4018BF404211F0004F41F4B3
:10307000000121F07F4118BF494292EA030F3FD07F
:10308000A2F1010241FA03FC10EB0C00C3F1200392
:1030900001FA03F100F0004302D5494260EB400021
:1030A000B0F5000F13D3B0F1807F06D340084FEA8C
:1030B000310102F10102FE2A51D2B1F1004F40EB81
:1030C000C25008BF20F0010040EA030070474900E9
:1030D00040EB000010F4000FA2F10102EDD1B0FAB4
:1030E00080FCACF1080CB2EB0C0200FA0CF0AABFA9
:1030F00000EBC25052421843BCBFD0401843704747
:1031000092F0000F81F4000106BF80F4000001324C
:10311000013BB5E74FEA41037FEA226C18BF7FEA23
:10312000236C21D092EA030F04D092F0000F08BF65
:103130000846704790EA010F1CBF0020704712F04C
:103140007F4F04D1400028BF40F00040704712F18B
:1031500000723CBF00F50000704700F0004343F0F0
:10316000FE4040F4000070477FEA226216BF084626
:103170007FEA23630146420206BF5FEA412390EAE9
:10318000010F40F4800070474FF0000304E000BFDF
:1031900010F0004348BF40425FEA000C08BF704790
:1031A00043F0964301464FF000001CE050EA010254
:1031B00008BF70474FF000030AE000BF50EA010269
:1031C00008BF704711F0004302D5404261EB410156
:1031D0005FEA010C02BF84460146002043F0B6437B
:1031E00008BFA3F18053A3F50003BCFA8CF2083AA0
:1031F000A3EBC25310DB01FA02FC634400FA02FCA9
:10320000C2F12002BCF1004F20FA02F243EB0200AF
:1032100008BF20F00100704702F1200201FA02FC11
:10322000C2F1200250EA4C0021FA02F243EB020004
:1032300008BF20EADC7070474FF0FF0C1CEAD05248
:103240001EBF1CEAD15392EA0C0F93EA0C0F6FD009
:103250001A4480EA010C400218BF5FEA41211ED0E7
:103260004FF0006343EA501043EA5111A0FB0131D3
:103270000CF00040B1F5000F3EBF490041EAD371A8
:103280005B0040EA010062F17F02FD2A1DD8B3F124
:10329000004F40EBC25008BF20F00100704790F093
:1032A000000F0CF0004C08BF49024CEA502040EAE5
:1032B00051207F3AC2BFD2F1FF0340EAC2507047AB
:1032C00040F400004FF00003013A5DDC12F1190FE9
:1032D000DCBF00F000407047C2F10002410021FA5B
:1032E00002F1C2F1200200FA02FC5FEA310040F173
:1032F000000053EA4C0308BF20EADC70704792F0EC
:10330000000F00F0004C02BF400010F4000F013A23
:10331000F9D040EA0C0093F0000F01F0004C02BF1E
:10332000490011F4000F013BF9D041EA0C018FE78D
:103330000CEAD15392EA0C0F18BF93EA0C0F0AD093
:1033400030F0004C18BF31F0004CD8D180EA0100B9
:1033500000F00040704790F0000F17BF90F0004F52
:10336000084691F0000F91F0004F14D092EA0C0F34
:1033700001D142020FD193EA0C0F03D14B0218BFC7
:10338000084608D180EA010000F0004040F0FE400D
:1033900040F40000704740F0FE4040F440007047A9
:1033A0004FF0FF0C1CEAD0521EBF1CEAD15392EA28
:1033B0000C0F93EA0C0F69D0A2EB030280EA010C18
:1033C00049024FEA402037D04FF0805343EA1111B1
:1033D00043EA10130CF000408B4238BF5B0042F10F
:1033E0007D024FF4000C8B4224BF5B1A40EA0C00B4
:1033F000B3EB510F24BFA3EB510340EA5C00B3EBE6
:10340000910F24BFA3EB910340EA9C00B3EBD10FD3
:1034100024BFA3EBD10340EADC001B0118BF5FEA25
:103420001C1CE0D1FD2A3FF650AF8B4240EBC2504E
:1034300008BF20F0010070470CF0004C4CEA50200F
:103440007F32C2BFD2F1FF0340EAC250704740F45E
:1034500000004FF00003013A37E792F0000F00F050
:10346000004C02BF400010F4000F013AF9D040EACE
:103470000C0093F0000F01F0004C02BF490011F462
:10348000000F013BF9D041EA0C0195E70CEAD1535A
:1034900092EA0C0F08D142027FF47DAF93EA0C0F41
:1034A0007FF470AF084676E793EA0C0F04D14B0225
:1034B0003FF44CAF08466EE730F0004C18BF31F0D7
:1034C000004CCAD130F000427FF45CAF31F00043D1
:1034D0007FF43CAF5FE700BF014B1868704700BF47
:1034E0003C01002038B50546002946D051F8043C7F
:1034F0000C1F002BB8BFE41800F0F2F81F4A136845
:10350000114613B96360146032E0A3420ED92268F9
:10351000A018834204BF18685B68636004BF121878
:1035200022600C6024E0A24203D813465A68002AA5
:10353000F9D118681918A1420BD121680144581813
:103540008242196014D1106852685A6001441960AF
:103550000EE002D90C232B600AE021686018824239
:1035600004BF10685268626004BF091821605C6083
:103570002846BDE8384000F0B4B838BD90020020BD
:1035800070B5CD1C25F0030508350C2D38BF0C2572
:10359000002D064601DBA94202D90C23336046E028
:1035A00000F09EF8234B1C681A462146A1B10B6817
:1035B0005B1B0ED40B2B03D90B60CC18CD501EE037
:1035C0008C420DBF63684B686360136018BF0C4684
:1035D00015E00C464968E9E7174C23681BB93046EB
:1035E00000F02CF820602946304600F027F8431CF4
:1035F00018D0C41C24F00304A0420DD1256030462D
:1036000000F06FF804F10B00231D20F00700C31A2F
:103610000ED05A42E25070BD211A304600F00EF82A
:103620000130EBD10C233360304600F05AF8002013
:1036300070BD00BF900200208C02002038B5064CFF
:103640000023054608462360FEF77CFE431C02D19A
:10365000236803B12B6038BDD0020020034613F865
:10366000012B002AFBD1181A0138704730B5141EFF
:1036700005469BB0184604DA8B232B604FF0FF30D1
:103680001DE04FF40273ADF80C3014BF04F1FF33AA
:103690002346029305934FF6FF7300910491ADF812
:1036A0000E3002461E9B6946284600F075F8431C02
:1036B000BCBF8B232B6014B1009B00221A701BB07F
:1036C00030BD000007B5009313460A460146034883
:1036D0000068FFF7CBFF03B05DF804FB3C0100205E
:1036E000704770472DE9F0478E689E4282460C462F
:1036F000914698463ED88A8912F4906F3AD0256850
:1037000009696F1A6569022305EB450595FBF3F519
:103710007B1C43449D4238BF1D4653050FD52946A7
:10372000FFF72EFF064698B13A46216900F018FBD4
:10373000A38923F4906343F08003A38113E02A4616
:1037400000F034FB064670B921695046FFF7CAFE07
:103750000C23CAF80030A38943F04003A3814FF043
:10376000FF30BDE8F087266165613E44ED1B2660B1
:10377000A5604646464528BF46463246494620682B
:1037800000F0F9FAA3689B1BA36023681E4426601F
:103790000020BDE8F08700002DE9F04F9DB0804685
:1037A00003938B891C060D4616460DD50B695BB934
:1037B0004021FFF7E5FE2860286118B90C23C8F8FE
:1037C0000030CDE040236B610023099320238DF866
:1037D0002930DFF89CB130238DF82A3037463C463B
:1037E00014F8013B1BB9B7EB060910D003E0252BF9
:1037F000F9D02746F3E74B46324629464046FFF7C5
:1038000071FF013000F0A780099B4B4409933B787E
:10381000002B00F0A08000234FF0FF3204930793A9
:10382000059206938DF853301A93012605222178CC
:103830004E4800F045FA671C049B38B14B4A801A89
:1038400006FA00F0184304903C46EFE7D90644BF5F
:1038500020228DF853201A0744BF2B228DF85320C5
:1038600022782A2A03D0079A00210A200BE0039A23
:10387000111D12680391002A10DA524243F002002F
:10388000079204900BE0274601343B78303B092B2C
:1038900003D800FB02320121F5E701B107923B7822
:1038A0002E2B1ED17B782A2B0AD1039B1A1D1B6855
:1038B0000392002BB8BF4FF0FF330237059310E09F
:1038C00000230593781C19460A24074601303A78EC
:1038D000303A092A03D804FB01210123F5E703B19B
:1038E000059103223978224800F0EAF940B14023DB
:1038F000CBEB000003FA00F0049B1843049001375F
:1039000039781C488DF8281006227E1C00F0D8F962
:1039100088B1194B33B9039B073323F007030833EE
:10392000039314E003AB00932A46144B04A94046CA
:10393000AFF3008007E003AB00932A460F4B04A9C6
:10394000404600F093F8B0F1FF3F824603D0099B58
:103950005344099342E7AB895B0601D4099801E01F
:103960004FF0FF301DB0BDE8F08F00BF864100086A
:103970008C4100089041000800000000E536000876
:103980002DE9F04791461F460A698B68DDF82080D3
:103990009342B8BF1346C9F8003091F84320064659
:1039A0000C4612B10133C9F800302368990642BFB2
:1039B000D9F800300233C9F80030256815F0060543
:1039C00010D104F1190A07E0012352463946304666
:1039D000C04701301AD00135E368D9F800209B1A9E
:1039E0009D42F1DB94F843302268003318BF012375
:1039F00092060FD5E1185A1C302081F8430022446A
:103A000094F8451082F84310023303E04FF0FF3082
:103A1000BDE8F08704F1430239463046C047013023
:103A2000F4D02268D9F80050E36802F00602042AB4
:103A300008BF5D1B2269A3680CBF25EAE575002558
:103A40009342C4BF9B1AED184FF000091A344D453C
:103A500009D00123224639463046C0470130D5D02F
:103A600009F10109F3E70020BDE8F0872DE9F043F3
:103A700017460A7E85B06E2A984606460C460C9B71
:103A800001F1430E00F0AE8011D8632A22D009D88C
:103A9000002A00F0BB80582A40F0CA8081F84520F7
:103AA000834955E0642A1ED0692A1CD0C0E0732ADD
:103AB00000F0B08009D86F2A2ED0702A40F0B8806C
:103AC0000A6842F020020A603EE0752A24D0782A73
:103AD0003AD0ADE01A6801F14205111D1960136872
:103AE00084F84230A8E021681A6811F0800F02D0F3
:103AF000111D196008E011F0400F02F10401196076
:103B000002D0B2F9003000E01368002B3CDA2D221D
:103B10005B4284F8432037E021681A6811F0800F77
:103B200002D0111D196007E011F0400F02F10401ED
:103B3000196001D0138800E01368227E5C496F2A67
:103B400014BF0A2208221BE078225A4984F8452033
:103B50002268186812F0800F00F104051D6003D17F
:103B6000550601D5038800E00368D00744BF42F042
:103B7000200222601BB9226822F02002226010225B
:103B8000002084F8430001E049490A226568A560E5
:103B9000002D08DB206820F0040020602BB9002DE8
:103BA0007DD175460CE0002B79D07546B3FBF2F061
:103BB00002FB1033CB5C05F8013D03460028F5D12C
:103BC000082A0BD12368DA0708D5236962689A426C
:103BD000DEBF302305F8013C05F1FF35C5EB0E03D0
:103BE00023612EE008681A68496910F0800F03D03D
:103BF000101D1860136808E010F0400F02F1040077
:103C00001860136801D0198000E019600023236157
:103C1000754616E01A68111D196015686268002162
:103C2000284600F04DF808B1401B6060636804E06E
:103C300004F1420584F8422001232361002384F823
:103C40004330CDF800803B4603AA21463046FFF7BB
:103C500097FE013002D14FF0FF3026E023692A465B
:103C600039463046C0470130F5D023689B0710D550
:103C7000002504F1190907E001234A463946304678
:103C8000C0470130E7D00135E368039A9B1A9D4293
:103C9000F2DBE068039B9842B8BF184605E00B785A
:103CA00084F8423004F142058AE705B0BDE8F083AC
:103CB00097410008A8410008000000000000000033
:103CC00001F0FF01102A2BDB10F0070F08D010F8CD
:103CD000013B013A8B422DD010F0070F42B3F6D1D1
:103CE000F0B441EA012141EA014122F007047FF0EA
:103CF00000070023F0E80256083C85EA010586EA41
:103D0000010685FA47F5A3FA87F586FA47F6A5FA7C
:103D100087F68EB9EED1F0BC01F0FF0102F0070288
:103D200032B110F8013B013A83EA010313B1F8D133
:103D30000020704701387047002D06BF3546033814
:103D4000073815F0010F07D1013015F4807F02BF4D
:103D5000013015F4C03F0130F0BC0138704700BF9E
:103D600010B5431E0A44914204D011F8014B03F8E8
:103D7000014FF8E710BD884210B501EB020301D8EE
:103D8000421E0BE09842FBD28118D21AD34204D0D3
:103D900013F8014D01F8014DF8E710BD994204D028
:103DA00011F8014B02F8014FF8E710BDF8B50746CE
:103DB00015460E4621B91146BDE8F840FFF7E0BBB5
:103DC0001AB9FFF78FFB2846F8BD00F015F88542B9
:103DD0000ED929463846FFF7D3FB044650B1314689
:103DE0002A46FFF7BDFF31463846FFF77BFB01E06F
:103DF0003046F8BD2046F8BD51F8040C0028BEBF7F
:103E0000091851F8043CC018043870472E2E2F733F
:103E1000797374656D2F7372632F73746D333266AB
:103E2000342D68616C2F73746D3332663478785F2B
:103E300068616C5F636F727465782E6300000000C8
:103E40002E2E2F73797374656D2F7372632F7374B5
:103E50006D333266342D68616C2F73746D33326646
:103E60003478785F68616C5F6770696F2E630000FB
:103E70002E2E2F73797374656D2F7372632F737485
:103E80006D333266342D68616C2F73746D33326616
:103E90003478785F68616C5F6932632E630000007C
:103EA00000000000010203040102030406070809E0
:103EB0002E2E2F73797374656D2F7372632F737445
:103EC0006D333266342D68616C2F73746D333266D6
:103ED0003478785F68616C5F7263632E6300000002
:103EE0002E2E2F73797374656D2F7372632F737415
:103EF0006D333266342D68616C2F73746D333266A6
:103F00003478785F68616C5F74696D2E63000000BF
:103F100061626F727428292C2065786974696E67F4
:103F20002E2E2E002C2066756E6374696F6E3A20FB
:103F300000000000617373657274696F6E20222542
:103F40007322206661696C65643A2066696C65203D
:103F5000222573222C206C696E652025642573252B
:103F6000730A00006173736572745F706172616DD2
:103F70002829206661696C65643A2066696C652051
:103F8000222573222C206C696E652025640A0000AE
:103F90006D61696E28617267633D25642C206172D2
:103FA00067763D5B000000002C2000002225732274
:103FB000000000005D293B0A0000000053746163AB
:103FC0006B206672616D653A0A0000002052302055
:103FD0003D2020253038580A0000000020523120B2
:103FE0003D2020253038580A0000000020523220A1
:103FF0003D2020253038580A000000002052332090
:104000003D2020253038580A00000000205231326F
:10401000203D20253038580A00000000204C522056
:104020003D2020253038580A000000002050432051
:104030003D2020253038580A0000000020505352FF
:10404000203D20253038580A000000004653522FEA
:104050004641523A0A0000002043465352203D2078
:1040600020253038580A00002048465352203D2071
:1040700020253038580A00002044465352203D2065
:1040800020253038580A00002041465352203D2058
:1040900020253038580A0000204D4D464152203D21
:1040A00020253038580A00002042464152203D2049
:1040B00020253038580A00004D6973630A0000005B
:1040C000204C522F4558435F52455455524E3D2087
:1040D000253038580A0000005B48617264466175FB
:1040E0006C745D0A000000005B4275734661756C7C
:1040F000745D0A005B55736167654661756C745D3C
:104100000A0000000000000000000000010203049B
:104110000607080948656C6C6F2041524D20576FA7
:10412000726C64210000000053797374656D206324
:104130006C6F636B3A20257520487A0A00000000F6
:1041400025750000312E20416363656C65726F6DCB
:104150006574657220583A25642D20593A25642DDE
:10416000205A3A2564204779726F73636F70652D0A
:1041700020583A25642D20593A25642D205A3A2595
:10418000640A00004300232D302B2000686C4C0093
:104190006566674546470030313233343536373847
:1041A00039414243444546003031323334353637A5
:0941B00038396162636465660040
:1041BC00785634124C010020000000000024F4005A
:1041CC00005800400000000000000000000000004B
:1041DC0000000000000000000000000000000000D3
:1041EC0000000000000000000000000000000000C3
:1041FC0000000000000000000000000000000000B3
:10420C0000000000005C0040000000000000000006
:10421C000000000000000000000000000000000092
:10422C000000000000000000000000000000000082
:10423C000000000000000000000000000000000072
:10424C0000000000000000000054004000000000CE
:10425C000000000000000000000000000000000052
:10426C000000000000000000000000000000000042
:10427C000000000000000000000000000000000032
:10428C000000000000000000000000000000000022
:10429C000000000000000000000000000000000012
:1042AC000000000000000000000000008441000835
:1042BC0000000000000000000000000000000000F2
:1042CC0000000000000000000000000000000000E2
:1042DC0000000000000000000000000000000000D2
:1042EC00000000000000000000000000DC000020C6
:0442FC00325476982A
:040000050800018965
:00000001FF
